:020000040800F2
:1000000000000220D525000815190008171900085E
:10001000191900081B1900081D190008000000002C
:10002000000000000000000000000000017900084E
:100030001F19000800000000A1790008057A0008D7
:100040002526000825260008252600082526000864
:100050002526000825260008211900082526000865
:1000600025260008252600082B190008252600084B
:100070003519000825260008252600082526000831
:100080002526000825260008252600082526000824
:1000900045190008551900082526000865190008AB
:1000A0002526000825260008252600082526000804
:1000B00071190008252600082526000825260008B5
:1000C00025260008252600082526000825260008E4
:1000D00025260008811900082526000869A30008C4
:1000E00025260008252600082526000825260008C4
:1000F00025260008252600082526000825260008B4
:1001000025260008252600082526000825260008A3
:100110002526000825260008252600082526000893
:10012000252600089119000859920008A119000815
:100130002526000825260008252600082526000873
:10014000B1190008C119000825260008D1190008B6
:1001500025260008E11900082526000825260008A4
:100160002526000825260008252600082526000843
:100170002526000825260008252600080000000086
:080180002526000825260008D1
:1001C00081F0004102E000BF83F0004330B54FEA08
:1001D00041044FEA430594EA050F08BF90EA020F75
:1001E0001FBF54EA000C55EA020C7FEA645C7FEA08
:1001F000655C00F0E2804FEA5454D4EB5555B8BF2B
:100200006D420CDD2C4480EA020281EA030382EA9B
:10021000000083EA010180EA020281EA0303362D2D
:1002200088BF30BD11F0004F4FEA01314FF4801C00
:100230004CEA113102D0404261EB410113F0004F12
:100240004FEA03334CEA133302D0524263EB4303C9
:1002500094EA050F00F0A780A4F10104D5F1200E67
:100260000DDB02FA0EFC22FA05F2801841F10001C2
:1002700003FA0EF2801843FA05F359410EE0A5F196
:1002800020050EF1200E012A03FA0EFC28BF4CF0C7
:10029000020C43FA05F3C01851EBE37101F000457D
:1002A00007D54FF0000EDCF1000C7EEB00006EEB8A
:1002B0000101B1F5801F1BD3B1F5001F0CD3490814
:1002C0005FEA30004FEA3C0C04F101044FEA44526B
:1002D00012F5800F80F09A80BCF1004F08BF5FEAF2
:1002E000500C50F1000041EB045141EA050130BDD2
:1002F0005FEA4C0C404141EB0101013C28BFB1F5E4
:10030000801FE9D291F0000F04BF01460020B1FA2E
:1003100081F308BF2033A3F10B03B3F120020CDA01
:100320000C3208DD02F1140CC2F10C0201FA0CF0DF
:1003300021FA02F10CE002F11402D8BFC2F1200C44
:1003400001FA02F120FA0CFCDCBF41EA0C019040FA
:10035000E41AA2BF01EB0451294330BD6FEA040443
:100360001F3C1CDA0C340EDC04F11404C4F120022E
:1003700020FA04F001FA02F340EA030021FA04F340
:1003800045EA030130BDC4F10C04C4F1200220FA97
:1003900002F001FA04F340EA0300294630BD21FAD5
:1003A00004F0294630BD94F0000F83F4801306BF9B
:1003B00081F480110134013D4EE77FEA645C18BF8F
:1003C0007FEA655C29D094EA050F08BF90EA020F26
:1003D00005D054EA000C04BF1946104630BD91EA1E
:1003E000030F1EBF0021002030BD5FEA545C05D121
:1003F0004000494128BF41F0004130BD14F5800460
:100400003CBF01F5801130BD01F0004545F0FE41D3
:1004100041F470014FF0000030BD7FEA645C1ABF08
:10042000194610467FEA655C1CBF0B46024650EA3F
:10043000013406BF52EA033591EA030F41F400216B
:1004400030BD00BF90F0000F04BF0021704730B5F1
:100450004FF4806404F132044FF000054FF00001C6
:1004600050E700BF90F0000F04BF0021704730B587
:100470004FF4806404F1320410F0004548BF40425C
:100480004FF000013EE700BF42004FEAE2014FEAB1
:1004900031014FEA02701FBF12F07F4393F07F4F8C
:1004A00081F06051704732F07F4208BF704793F08F
:1004B0007F4F04BF41F40021704730B54FF46074A2
:1004C00001F0004521F000411CE700BF50EA0102A5
:1004D00008BF704730B54FF000050AE050EA01024E
:1004E00008BF704730B511F0004502D5404261EBBE
:1004F00041014FF4806404F132045FEA915C3FF4FF
:10050000D8AE4FF003025FEADC0C18BF03325FEA9B
:10051000DC0C18BF033202EBDC02C2F1200300FA4C
:1005200003FC20FA02F001FA03FE40EA0E0021FA71
:1005300002F11444BDE600BF4FEA4102B2F1E043CC
:1005400024BFB3F5001CDCF1FE5C0DD901F0004CBA
:100550004FEAC0024CEA5070B2F1004F40EB83000A
:1005600008BF20F00100704711F0804F21D113F136
:100570003872BCBF01F00040704741F480114FEA6F
:100580005252C2F11802C2F1200C10FA0CF320FAF8
:1005900002F018BF40F001004FEAC1234FEAD32315
:1005A00003FA0CFC40EA0C0023FA02F34FEA43037F
:1005B000CCE77FEA625307D150EA01331EBF4FF008
:1005C000FE4040F44000704701F0004040F0FE4023
:1005D00040F40000704700BF53B94AB9002908BF72
:1005E00000281CBF4FF0FF314FF0FF3000F00CB877
:1005F000ADF1080C6DE904CE0DF09AFADDF804E0D7
:10060000DDE9022304B07047704700BF844641EA29
:10061000000313F003036DD1403A41D351F8043B7A
:1006200040F8043B51F8043B40F8043B51F8043BCC
:1006300040F8043B51F8043B40F8043B51F8043BBC
:1006400040F8043B51F8043B40F8043B51F8043BAC
:1006500040F8043B51F8043B40F8043B51F8043B9C
:1006600040F8043B51F8043B40F8043B51F8043B8C
:1006700040F8043B51F8043B40F8043B51F8043B7C
:1006800040F8043B51F8043B40F8043B51F8043B6C
:1006900040F8043B51F8043B40F8043B403ABDD2DB
:1006A000303211D351F8043B40F8043B51F8043B7D
:1006B00040F8043B51F8043B40F8043B51F8043B3C
:1006C00040F8043B103AEDD20C3205D351F8043B0C
:1006D00040F8043B043AF9D2043208D0D2071CBFD8
:1006E00011F8013B00F8013B01D30B880380604601
:1006F000704700BF082A13D38B078DD010F0030377
:100700008AD0C3F10403D21ADB071CBF11F8013BE6
:1007100000F8013B80D331F8023B20F8023B7BE735
:10072000043AD9D3013A11F8013B00F8013BF9D260
:100730000B7803704B7843708B78837060467047FA
:1007400030B490F800F020F007016FF0000C10F0CA
:10075000070491F820F040F048804FF000046FF05B
:100760000700D1E9002391F840F000F1080082FA77
:100770004CF2A4FA8CF283FA4CF3A2FA8CF34BBB42
:10078000D1E9022382FA4CF200F10800A4FA8CF2BB
:1007900083FA4CF3A2FA8CF3E3B9D1E9042382FA89
:1007A0004CF200F10800A4FA8CF283FA4CF3A2FA9E
:1007B0008CF37BB9D1E9062301F1200182FA4CF2D6
:1007C00000F10800A4FA8CF283FA4CF3A2FA8CF33D
:1007D000002BC6D0002A04BF04301A4612BAB2FA5F
:1007E00082F200EBD20030BC7047D1E9002304F064
:1007F0000305C4F100004FEAC50514F0040F91F899
:1008000040F00CFA05F562EA05021CBF63EA050335
:1008100062464FF00004AAE700000000000000005C
:1008200001F0FF01102A2BDB10F0070F08D010F8A1
:10083000013B013A8B422DD010F0070F42B3F6D1A5
:10084000F0B441EA012141EA014122F007047FF0BE
:1008500000070023F0E80256083C85EA010586EA15
:10086000010685FA47F5A3FA87F586FA47F6A5FA51
:1008700087F68EB9EED1F0BC01F0FF0102F007025D
:1008800032B110F8013B013A83EA010313B1F8D108
:100890000020704701387047002D06BF35460338E9
:1008A000073815F0010F07D1013015F4807F02BF22
:1008B000013015F4C03F0130F0BC0138704700BF73
:1008C00070B54FF0FF0C4CF4E06C1CEA11541DBFE6
:1008D0001CEA135594EA0C0F95EA0C0F00F0DEF8B1
:1008E0002C4481EA030621EA4C5123EA4C5350EA96
:1008F000013518BF52EA033541F4801143F48013E7
:1009000038D0A0FB02CE4FF00005E1FB02E506F077
:100910000042E0FB03E54FF00006E1FB03569CF0CC
:10092000000F18BF4EF0010EA4F1FF04B6F5007FD2
:1009300064F5407404D25FEA4E0E6D4146EB060644
:1009400042EAC62141EA55514FEAC52040EA5E50CD
:100950004FEACE2EB4F1FD0C88BFBCF5E06F1ED877
:10096000BEF1004F08BF5FEA500E50F1000041EBAE
:10097000045170BD06F0004646EA010140EA02005B
:1009800081EA0301B4EB5C04C2BFD4EB0C0541EA7D
:10099000045170BD41F480114FF0000E013C00F392
:1009A000AB8014F1360FDEBF002001F0004170BDB6
:1009B000C4F10004203C35DA0C341BDC04F11404CF
:1009C000C4F1200500FA05F320FA04F001FA05F25B
:1009D00040EA020001F0004221F0004110EBD37028
:1009E00021FA04F642EB06015EEA430E08BF20EA54
:1009F000D37070BDC4F10C04C4F1200500FA04F3F7
:100A000020FA05F001FA04F240EA020001F0004188
:100A100010EBD37041F100015EEA430E08BF20EAFB
:100A2000D37070BDC4F1200500FA05F24EEA020E43
:100A300020FA04F301FA05F243EA020321FA04F072
:100A400001F0004121FA04F220EA020000EBD37029
:100A50005EEA430E08BF20EAD37070BD94F0000F29
:100A60000FD101F00046400041EB010111F4801F5D
:100A700008BF013CF7D041EA060195F0000F18BF0E
:100A8000704703F00046520043EB030313F4801F4A
:100A900008BF013DF7D043EA0603704794EA0C0F04
:100AA0000CEA135518BF95EA0C0F0CD050EA41061A
:100AB00018BF52EA4306D1D181EA030101F0004197
:100AC0004FF0000070BD50EA410606BF10461946BF
:100AD00052EA430619D094EA0C0F02D150EA0136CB
:100AE00013D195EA0C0F05D152EA03361CBF10460C
:100AF00019460AD181EA030101F0004141F0FE41AB
:100B000041F470014FF0000070BD41F0FE4141F42E
:100B1000780170BD70B54FF0FF0C4CF4E06C1CEA2E
:100B200011541DBF1CEA135594EA0C0F95EA0C0FE3
:100B300000F0A7F8A4EB050481EA030E52EA03359E
:100B40004FEA013100F088804FEA03334FF08055BF
:100B500045EA131343EA12634FEA022245EA1115EC
:100B600045EA10654FEA00260EF000419D4208BF9D
:100B7000964244F1FD0404F5407402D25B084FEA4A
:100B80003202B61A65EB03055B084FEA32024FF4F6
:100B900080104FF4002CB6EB020E75EB030E22BF53
:100BA000B61A754640EA0C005B084FEA3202B6EB13
:100BB000020E75EB030E22BFB61A754640EA5C00C2
:100BC0005B084FEA3202B6EB020E75EB030E22BF52
:100BD000B61A754640EA9C005B084FEA3202B6EB53
:100BE000020E75EB030E22BFB61A754640EADC0012
:100BF00055EA060E18D04FEA051545EA16754FEA74
:100C000006164FEAC30343EA52734FEAC2025FEA91
:100C10001C1CC0D111F4801F0BD141EA00014FF020
:100C200000004FF0004CB6E711F4801F04BF0143F1
:100C30000020B4F1FD0C88BFBCF5E06F3FF6AFAE0D
:100C4000B5EB030C04BFB6EB020C5FEA500C50F19D
:100C5000000041EB045170BD0EF0004E4EEA113120
:100C600014EB5C04C2BFD4EB0C0541EA045170BD27
:100C700041F480114FF0000E013C90E645EA060E6B
:100C80008DE60CEA135594EA0C0F08BF95EA0C0F99
:100C90003FF43BAF94EA0C0F0AD150EA01347FF4E1
:100CA00034AF95EA0C0F7FF425AF104619462CE7B8
:100CB00095EA0C0F06D152EA03353FF4FDAE10461B
:100CC000194622E750EA410618BF52EA43067FF46C
:100CD000C5AE50EA41047FF40DAF52EA43057FF4FC
:100CE000EBAE12E74FF0FF3C06E000BF4FF0010C07
:100CF00002E000BF4FF0010C4DF804CD4FEA410C6B
:100D00007FEA6C5C4FEA430C18BF7FEA6C5C1BD037
:100D100001B050EA410C0CBF52EA430C91EA030FB8
:100D200002BF90EA020F0020704710F1000F91EA15
:100D3000030F58BF994208BF90422CBFD8176FEAE3
:100D4000E37040F0010070474FEA410C7FEA6C5CB1
:100D500002D150EA013C07D14FEA430C7FEA6C5CB8
:100D6000D6D152EA033CD3D05DF8040B704700BFE4
:100D70008446104662468C461946634600E000BF32
:100D800001B5FFF7B7FF002848BF10F1000F01BD04
:100D90004DF808EDFFF7F4FF0CBF012000205DF8CF
:100DA00008FB00BF4DF808EDFFF7EAFF34BF012054
:100DB00000205DF808FB00BF4DF808EDFFF7E0FFED
:100DC00094BF012000205DF808FB00BF4DF808ED3E
:100DD000FFF7CEFF94BF012000205DF808FB00BFA5
:100DE0004DF808EDFFF7C4FF34BF012000205DF887
:100DF00008FB00BF4FEA410C7FEA6C5C02D150EA6D
:100E0000013C0AD14FEA430C7FEA6C5C02D152EA02
:100E1000033C02D14FF0000070474FF001007047D3
:100E20004FEA410212F5001215D211D56FF4787312
:100E3000B3EB625212D94FEAC12343F0004343EAB5
:100E4000505311F0004F23FA02F018BF4042704790
:100E50004FF00000704750EA013005D111F000401A
:100E600008BF6FF0004070474FF00000704700BFB0
:100E70000348044B834202D0034B03B11847704729
:100E80005807002058070020000000000548064BC6
:100E90001B1AD90F01EBA301491002D0034B03B178
:100EA000184770475807002058070020000000002E
:100EB00010B5064C237843B9FFF7DAFF044B13B1A2
:100EC0000448AFF300800123237010BD58070020B1
:100ED00000000000E04F010808B5054B1BB10549B3
:100EE0000548AFF30080BDE80840FFF7CFBF00BF63
:100EF000000000005C070020E04F010800B585B04D
:100F0000002300930193029303931548154A02604E
:100F10004FF40032426083600361037680F8203032
:100F2000C362114A8262C3600122C26180F830301C
:100F3000426101F053FC68B910230093012301932F
:100F4000002302936946064801F076FD28B905B0F2
:100F50005DF804FB00F0EDFAEEE700F0EAFAF6E7E0
:100F600074070020002001400100000F0268094BB7
:100F70009A4200D0704782B000230193064B5A6C0E
:100F800042F480725A645B6C03F480730193019B9A
:100F900002B07047002001400038024008B50E48FA
:100FA0000E4B03600323436000238360C3604FF450
:100FB000102202614FF40012426103760122427650
:100FC0008376C2760377437701F000FE00B908BD4F
:100FD00000F0AFFAFBE700BFE80700200064004024
:100FE00008B50E480E4B0360032343600023836063
:100FF000C3604FF4102202614FF400124261037685
:10100000012242768376C2760377437701F0DEFDD4
:1010100000B908BD00F08DFAFBE700BFC007002053
:101020000068004010B58AB000230593069307932B
:10103000089309930368474A934204D0464A93426F
:101040003ED00AB010BD454A136801331360012B2E
:1010500029D000240194424B1A6B42F008021A6313
:101060001B6B03F008030193019B032305930222EA
:1010700006920122079208930923099305A939488A
:1010800002F072FD22460521142002F04FF91420CF
:1010900002F05CF922460521152002F047F91520DF
:1010A00002F054F9CDE7002300932D4B1A6C42F067
:1010B00000721A641B6C03F000730093009BC8E776
:1010C00000230293264B1A6C42F080621A641B6C58
:1010D00003F080630293029B204A1368013313607C
:1010E000012B2AD0002404941D4B1A6B42F00202FB
:1010F0001A631B6B03F002030493049B60230593A4
:1011000002230693012307930323089309230993DA
:1011100005A9154802F028FD22460521402002F0CD
:1011200005F9402002F012F922460521412002F083
:10113000FDF8412002F00AF983E700230393084BEE
:101140001A6C42F000721A641B6C03F00073039374
:10115000039BC7E70064004000680040BC07002014
:1011600000380240000C02400004024008B5054867
:10117000054B036002F0F8F800B908BD00F0D9F99A
:10118000FBE700BF10080020003002400268094B56
:101190009A4200D0704782B000230193064B1A6B2D
:1011A00042F480521A631B6B03F480530193019B3A
:1011B00002B07047003002400038024010B582B0E3
:1011C000002400941E4B1A6B42F480021A631A6BBF
:1011D00002F480020092009A01941A6B42F4001209
:1011E0001A631B6B03F400130193019B2246052134
:1011F0000C2002F09BF80C2002F0A8F822460521F2
:10120000392002F093F8392002F0A0F82246052197
:101210003A2002F08BF83A2002F098F82246052195
:101220003B2002F083F83B2002F090F82246052193
:10123000452002F07BF8452002F088F802B010BD8E
:101240000038024008B5012006F0B4FAFBE70000C0
:10125000034B0360034B0B6080231360704700BF98
:10126000200A00201C08002010B5A4B000224FF472
:101270008071052006F01EFE2E4B18602E4C0DF1DD
:10128000740CA646BEE80F00ACE80F009EE807000D
:101290008CE8070000211DA806F059FA274B1860BA
:1012A0000DF1580C04F11C0EBEE80F00ACE80F0065
:1012B0009EE807008CE80700002116A806F047FA10
:1012C0001F4B18600DF13C0C04F1380EBEE80F0006
:1012D000ACE80F009EE807008CE8070000210FA88B
:1012E00006F035FA174B18600DF1200C04F1540E7E
:1012F000BEE80F00ACE80F009EE807008CE807008E
:10130000002108A806F023FA0F4B18600DF1040E17
:1013100004F1700CBCE80F00AEE80F009CE8070079
:101320008EE80700002101A806F011FA074B1860AB
:1013300024B010BD18080020F84F0108A80B0020A9
:10134000A40B0020A00B00209C0B0020980B002079
:101350002DE9F0418EB0002409940A940B940C946A
:101360000D940094694B1A6B42F002021A631A6BD7
:1013700002F002020092009A01941A6B42F04002BD
:101380001A631A6B02F040020192019A02941A6BDE
:1013900042F001021A631A6B02F001020292029AF1
:1013A00003941A6B42F008021A631A6B02F00802E7
:1013B0000392039A04941A6B42F004021A631A6BA4
:1013C00002F004020492049A05941A6B42F48072AB
:1013D0001A631A6B02F480720592059A06941A6BCE
:1013E00042F080021A631A6B02F080020692069A9B
:1013F00007941A6B42F020021A631A6B02F0200263
:101400000792079A08941A6B42F010021A631B6B3A
:1014100003F010030893089BDFF8008101221021DC
:10142000404602F097FC3A4E012241F2010130465B
:1014300002F090FC22464FF40041304602F08AFC54
:10144000012509950A940B9509A9404602F08CFBE9
:10145000102309930A950B9502270C9709A940467A
:1014600002F082FB302309934FF40418CDF8288052
:101470000B9509A9274802F077FB0995CDF828803C
:101480000B9509A9244802F06FFB4FF48053099390
:101490000A950B950C9509A9304602F065FB099554
:1014A0000A950B950C9709A9304602F05DFB4FF4A5
:1014B000804309930A940B9709A9304602F054FB24
:1014C0004FF4004309930A950B940C9409A93046F4
:1014D00002F04AFB22460521062001F027FF0620E4
:1014E00001F034FF224605210A2001F01FFF0A20E7
:1014F00001F02CFF22460521172001F017FF1720CD
:1015000001F024FF0EB0BDE8F08100BF00380240BA
:10151000000402400008024000180240000002409F
:1015200008B50368B3F1804F00D008BD01F096F80C
:10153000FBE772B67047000000B595B0302200217D
:1015400008A80DF0BBF800230393049305930693BA
:1015500007930193214A116C41F080511164126C80
:1015600002F080520192019A02931D4B1A6842F4D4
:1015700080421A601B6803F480430293029B01239C
:1015800008934FF48033099302230E934FF48002A3
:101590000F9206221092A8221192129307231393FE
:1015A00008A803F031F998B90F2303930223049399
:1015B000002305934FF4A05306934FF480530793F1
:1015C000052103A803F070FB28B915B05DF804FBF2
:1015D000FFF7AFFFE8E7FFF7ACFFF6E700380240A0
:1015E0000070004008B501F01FF8FFF7A5FFFFF7F6
:1015F000AFFEFFF7E3FDFFF7D1FCFFF7F1FC00F0D2
:1016000059F800F017FD00F06DFD00F089FE00F0C4
:10161000A5FE00F0CFFC00F02FFEFFF76FFCFFF7F8
:10162000A5FD00F01FF800F067FC00F0C5FD00F01C
:101630005DFE0CF00FFA08F05BFF094C0821204614
:1016400004F05CFA0421204604F058FA08F010FC7B
:1016500008F080FEFFF708FE06F074F8FEE700BF12
:10166000740D002008B50548054B036003F010FC1D
:1016700000B908BDFFF75DFFFBE700BFAC0B002022
:10168000000806500268094B9A4200D0704782B0A9
:1016900000230193064B5A6B42F040025A635B6B86
:1016A00003F040030193019B02B07047000806500D
:1016B0000038024008B50F480F4B03604FF48273A7
:1016C000436000238360C360022202610122426101
:1016D0004FF4007282613822C26103624362836206
:1016E0000A23C36203F084FC00B908BDFFF721FFA1
:1016F000FBE700BF7C0C0020003001402DE9F043E7
:1017000089B000230393049305930693079302681B
:101710003F4B9A4202D009B0BDE8F0830446002551
:10172000009503F584335A6C42F480525A645A6C23
:1017300002F480520092009A01951A6B42F0020264
:101740001A631A6B02F002020192019A02951A6B57
:1017500042F001021A631B6B03F001030293029B28
:10176000182303934FF00209CDF810904FF00108B1
:10177000CDF81480032706970526079603A9254868
:1017800002F0F2F980230393CDF81090CDF8148085
:101790000697079603A9204802F0E6F91F48204B58
:1017A00003604FF0C06343608560C5604FF48063A1
:1017B000036145618561C5614FF440330362456251
:1017C00001F04CFEE8B9154BE3649C631548164BD9
:1017D00003604FF0C0634360402383600023C36015
:1017E0004FF48062026143618361C3614FF4003250
:1017F0000262436201F032FE30B90A4BA3649C637B
:1018000089E7FFF796FEDEE7FFF793FEF5E700BFF7
:101810000030014000040240000002401C0C002087
:1018200040640240BC0B00205864024000B583B005
:10183000002200920D4B596C41F480415964596C5F
:1018400001F48041009100990192196C41F080519E
:1018500019641B6C03F080530193019B0F216FF0FF
:10186000010001F063FD03B05DF804FB00380240A5
:1018700030B589B0044600230193224B1A6C42F024
:1018800001021A641B6C03F001030193019B02A97E
:1018900003A803F0DFFA069BD3B903F0BBFA0346B3
:1018A000194AA2FB03239B0C013B18484FF08042CE
:1018B000026040F2E732C26043600023036183604C
:1018C000836103F081FF054630B1284609B030BD81
:1018D00003F0A0FA4300E3E70C4803F00BFE0546D3
:1018E0000028F2D11C2001F031FD0F2C01D9012577
:1018F000EBE7002221461C2001F018FD044B1C6080
:10190000E3E700BF0038024083DE1B43D40C002015
:1019100008000020FEE7FEE7FEE7FEE7FEE770476F
:1019200008B5012002F01CFA08BD08B5102002F02D
:1019300017FA08BD08B5024801F054FE08BD00BF03
:101940009C0F002008B5024801F085FB08BD00BFD0
:10195000E807002008B5024801F07DFB08BD00BF84
:10196000E807002008B5202002F0FAF908BD0000C1
:1019700008B5024803F006FE08BD00BFD40C0020E5
:1019800008B5024804F0FAFB08BD00BF841000202F
:1019900008B5024801F026FE08BD00BF3C0F00203C
:1019A00008B5024801F01EFE08BD00BFBC0B0020B8
:1019B00008B5024801F04FFB08BD00BFC00700207A
:1019C00008B5024801F047FB08BD00BFC007002072
:1019D00008B5024802F034FC08BD00BF4472002084
:1019E00008B5024801F0FEFD08BD00BFDC0E002076
:1019F00038B536490B889BB25A1C92B20A80344AD9
:101A000012783449CA540A2A5DD0314C6423012229
:101A10002146314804F0BDFA012221462F4804F046
:101A200008FD38BD07EE903AF8EE677ADFED2C6AD4
:101A300087EEA67A2B4B83ED007A4FF4806200216B
:101A400024480CF03BFE214B00221A800134E4B202
:101A50001E4B1B889BB29C42D7D222461D4B1B5D5E
:101A6000762BF3D1201D194B1B889BB29842EDDADF
:101A7000E31C184DE95C2B5C01EB81014800034439
:101A8000DBB2103BDBB20132AA5C782ACAD0792AD9
:101A90000DD0772AD1D107EE903AF8EE677ADFEDD4
:101AA000106A87EEA67A104B83ED007AC5E707EE41
:101AB000903AF8EE677ADFED0A6A87EEA67A0B4B6A
:101AC00083ED007AB9E70024C2E700BFF279002075
:101AD000F47D0020F4790020FC0F00208410002009
:101AE0000000C842240D00201C0D0020200D002005
:101AF0000120704708B50DF0E1F8162303604FF0A0
:101B0000FF3008BD08B54FF0FF31FFF7F3FFFEE7E8
:101B100070B50C461646002506E0AFF3008021465E
:101B200001F8010B01350C46B542F6DB304670BDBD
:101B300070B50C461646002504E014F8010BAFF30F
:101B400000800135B542F8DB304670BD4FF0FF3004
:101B500070474FF400534B600020704701207047DE
:101B60000020704710B503460C4A0D490D48006827
:101B700040B10C4800680344521A934206D8094AFF
:101B8000136010BD0748084C0460F2E70DF096F8AA
:101B90000C2303604FF0FF30F3E700BF000002208A
:101BA00000200000280D0020E8810020034AD2F820
:101BB000883043F47003C2F88830704700ED00E0CD
:101BC00000B58BB000230593069307930893099300
:101BD0000368234A934208D0224A934212D0224AF1
:101BE00093421CD00BB05DF804FB002301931F4B04
:101BF0005A6C42F001025A645B6C03F001030193DA
:101C0000019BEFE700230293184B1A6C42F002028B
:101C10001A641B6C03F002030293029BE2E70021AB
:101C20000391124B5A6C42F002025A645A6C02F051
:101C300002020392039A04911A6B42F004021A639F
:101C40001B6B03F004030493049B402305930223BE
:101C500006930323099305A9054801F085FFC1E711
:101C60000000014000040040000401400038024030
:101C70000008024084B00368184A934207D0184A0B
:101C8000934211D0174A93421BD004B070470023EF
:101C90000193154B1A6C42F004021A641B6C03F09A
:101CA00004030193019BF0E7002302930E4B1A6C8F
:101CB00042F008021A641B6C03F008030293029BB3
:101CC000E3E700230393084B5A6C42F400325A6452
:101CD0005B6C03F400330393039BD6E700080040DA
:101CE000000C0040004401400038024030B58DB087
:101CF00000230793089309930A930B9303686D4A93
:101D0000934212D06C4A934229D06C4A934248D0F5
:101D10006B4A934268D06B4A934200F08F806A4AC4
:101D2000934200F0A5800DB030BD00230193674BB6
:101D30001A6B42F010021A631B6B03F0100301933D
:101D4000019B4FF400730793022208920123099329
:101D50000A920B9307A95E4801F006FFE3E7002310
:101D600002935A4B1A6B42F004021A631B6B03F086
:101D700004030293029B4FF480730793022308939A
:101D8000012209920A930B9307A9524801F0ECFE35
:101D9000514C204603F070FB0821204603F0AEFEB4
:101DA000C1E700230393494B1A6B42F008021A6300
:101DB0001B6B03F008030393039B4FF480430793CB
:101DC000022308930122099203220A920B9307A986
:101DD000424801F0C9FE424C204603F04DFB082169
:101DE000204603F08BFE9EE700250495374B1A6BC7
:101DF00042F080021A631B6B03F080030493049B80
:101E00004FF4E053079302230893012209920A93A7
:101E10000B9307A9334801F0A7FE334C204603F08B
:101E20002BFB2946204603F069FE0421204603F0DF
:101E300065FE0821204603F061FE74E70023059348
:101E4000224B1A6B42F480721A631B6B03F480738B
:101E50000593059B8023079302230893012309938D
:101E600003230A930B9307A9204801F07DFE5AE74C
:101E700000250695154B1A6B42F020021A631B6B66
:101E800003F020030693069B402307930223089345
:101E9000012209920A9303230B9307A9144801F026
:101EA00063FE144C204603F0E7FA2946204603F06F
:101EB00025FE38E700000140000400400008004013
:101EC000000C004000040140004401400038024082
:101ED00000100240000802404C0E0020000C02409E
:101EE000040E0020001C0240BC0D00200020024017
:101EF000001402402C0D002010B592B00024109464
:101F0000119409940A940B940C940D940E940F94CC
:101F10002022214601A80CF0D1FB2448244B036069
:101F2000A7234360846044F61F63C3600461446177
:101F3000846103F075FC00282BD1002310931193CA
:101F400010A91A4803F05CFE30BB602309934FF4DC
:101F50007A730A9300220B920C920D920E920F92BA
:101F600009A9124803F0C0FCC8B9002301930293E9
:101F70000393049305934FF400520692089301A92A
:101F80000A4803F083FE68B90848FFF7AFFE12B0B5
:101F900010BDFFF7CEFAD0E7FFF7CBFAD5E7FFF792
:101FA000C8FAE2E7FFF7C5FAEEE700BF940E00209B
:101FB0000000014000B58BB0002308930993019302
:101FC0000293039304930593069307931748184AC3
:101FD00002604360836042F2CF02C26003618361AA
:101FE00003F01EFCC8B900230893099308A90F4801
:101FF00003F006FEA0B9602301930023029303932C
:102000000593082201A9094803F06EFC58B9074856
:10201000FFF76CFE0BB05DF804FBFFF78AFAE2E70E
:10202000FFF787FAE7E7FFF784FAF0E74C0E0020A6
:102030000004004000B58FB000230A930B930C936B
:102040000D930893099301930293039304930593CB
:10205000069307932148224A0260A72242608360C8
:102060004FF6FF72C2600361836103F0ADFB28BBD2
:102070004FF480530A930AA9184803F0B0FC00BB40
:10208000164803F0CDFBF8B900230893099308A97B
:10209000124803F0B5FDD0B96023019300230293E9
:1020A00003930593082201A90C4803F01DFC88B98D
:1020B0000A48FFF71BFE0FB05DF804FBFFF739FA83
:1020C000D6E7FFF736FADBE7FFF733FADCE7FFF78F
:1020D00030FAE1E7FFF72DFAEAE700BF040E00202F
:1020E0000008004000B58FB000230A930B930C93B7
:1020F0000D9308930993019302930393049305931B
:10210000069307932A482B4A0260436083604FF688
:10211000FF72C2600361836103F056FB002831D176
:102120004FF480530A930AA9214803F058FC60BB7E
:102130001F4803F075FB58BB00230893099308A9B7
:102140001B4803F05DFD30BB602301930022029227
:102150000392059201A9164803F0C6FBF0B90422C8
:102160000DEB0201124803F0BFFBD0B9082201A910
:102170000F4803F0B9FBB8B90D48FFF7B7FD0FB032
:102180005DF804FBFFF7D5F9CAE7FFF7D2F9CFE70F
:10219000FFF7CFF9D0E7FFF7CCF9D5E7FFF7C9F99B
:1021A000DDE7FFF7C6F9E1E7FFF7C3F9E4E700BFB2
:1021B000BC0D0020000C004010B592B0002410941B
:1021C000119409940A940B940C940D940E940F940A
:1021D0002022214601A80CF071FA2548254B036006
:1021E000A7234360846040F69C73C360046144612C
:1021F0008023836103F014FB00282CD1002310936B
:10220000119310A91A4803F0FBFC38BB6023099313
:102210004FF47A730A9300230B930C930D930E9350
:102220000F93082209A9124803F05EFBC8B90023E6
:10223000019302930393049305934FF40052069283
:10224000089301A90A4803F021FD68B90848FFF77F
:102250004DFD12B010BDFFF76CF9CFE7FFF769F93C
:10226000D4E7FFF766F9E2E7FFF763F9EEE700BFAF
:10227000740D00200004014000B589B000230193D3
:102280000293039304930593069307931548164A04
:1022900002604360836041F28732C2600361836100
:1022A00003F092FAA0B90F4803F0BAFA98B9602384
:1022B0000193002202920392059201A9094803F0BA
:1022C00013FB58B90748FFF711FD09B05DF804FB8F
:1022D000FFF72FF9E7E7FFF72CF9E8E7FFF729F910
:1022E000F0E700BF2C0D00200044014008B50A486B
:1022F0000A4B03604FF4E133436000238360C36003
:1023000003610C2242618361C36103F013FE00B9D3
:1023100008BDFFF70EF9FBE7841000200010014014
:1023200008B50B480B4B03600B4B436000238360E5
:10233000C3604FF480620261042242618361C36121
:1023400003F0F8FD00B908BDFFF7F3F8FBE700BFA5
:102350004010002000480040A086010008B50A484F
:102360000A4B03604FF4E133436000238360C36092
:1023700003610C2242618361C36103F0DBFD00B99C
:1023800008BDFFF7D6F8FBE7FC0F00200014014062
:10239000F0B58DB000230793089309930A930B932C
:1023A00003687E4A934209D004467D4A934245D051
:1023B0007C4A934200F089800DB0F0BD0024009467
:1023C000794B5A6C42F010025A645A6C02F01002B7
:1023D0000092009A01941A6B42F002021A631A6B7F
:1023E00002F002020192019A02941A6B42F0010279
:1023F0001A631B6B03F001030293029B8023079374
:102400000227089703260A9607250B9507A9674810
:1024100001F0AAFB4FF400730793089709940A96FA
:102420000B9507A9624801F09FFB22460521252054
:1024300000F07CFF252000F089FFBDE70025039513
:10244000594B1A6C42F480221A641A6C02F48022EE
:102450000392039A04951A6B42F004021A631B6BF1
:1024600003F004030493049B4FF440630793022397
:10247000089303230A9307230B9307A94D4801F000
:1024800073FB4D484D4B03604FF000634360856024
:10249000C5604FF48063036145618561C5614FF498
:1024A00000330362456200F0D9FF58B9424BA36381
:1024B0009C6300220521272000F038FF272000F030
:1024C00045FF79E7FFF735F8F0E700250595364B2E
:1024D0005A6C42F020025A645A6C02F020020592B3
:1024E000059A06951A6B42F040021A631B6B03F0C3
:1024F00040030693069B4FF48443079302230893FB
:1025000003260A9608230B9307A92D4801F02CFBFC
:102510002C482D4B03604FF0206343608560C560FD
:102520004FF48063036145618561C5614FF40033F9
:102530000362042343628662C562056300F08EFF76
:1025400028BB204BA3639C632048214B03604FF0C2
:1025500020634360402383600023C3604FF48062A4
:10256000026143618361C3614FF48032026243625E
:1025700000F074FF70B9154B63639C630022052162
:10258000472000F0D3FE472000F0E0FE14E7FEF7FE
:10259000D0FFD6E7FEF7CDFFEDE700BF001001400A
:1025A000004800400014014000380240000402408E
:1025B00000000240000802409C0F002028600240FA
:1025C000001802403C0F002028640240DC0E00206E
:1025D000A0640240DFF834D00D480E490E4A0023B3
:1025E00002E0D458C4500433C4188C42F9D30B4AC7
:1025F0000B4C002301E013600432A242FBD3FFF72F
:10260000D5FA0CF061FBFEF7EDFF704700000220E9
:1026100000000020580700207057010858070020CC
:10262000E4810020FEE7000008B50B4B1A6842F475
:1026300000721A601A6842F480621A601A6842F4E2
:1026400080721A60032000F05FFE0F20FFF710F980
:10265000FFF7ECF8002008BD003C0240034A116877
:10266000034B1B780B441360704700BFC810002059
:1026700004000020014B1868704700BFC8100020FC
:1026800038B50446FFF7F6FF0546B4F1FF3F02D028
:10269000044B1B781C44FFF7EDFF401BA042FAD30C
:1026A00038BD00BF040000204A4B5A6822F4403273
:1026B0005A605A6841680A435A600268536823F4B2
:1026C0008073536002685368016943EA01235360D1
:1026D0000268536823F0407353600268536881684E
:1026E0000B4353600268936823F4006393600268AD
:1026F0009368C1680B439360826A374B9A4257D004
:102700000268936823F07063936002689368816A3B
:102710000B4393600268936823F040539360026810
:102720009368C16A0B4393600268936823F00203C5
:10273000936002689368017E43EA4103936090F8D6
:102740002030002B3FD00268536843F4006353608D
:102750000268536823F46043536001684B68426A1F
:10276000013A43EA42334B600268D36A23F47003B0
:10277000D3620168CB6AC269013A43EA0253CB6271
:102780000268936823F4007393600268936890F87A
:10279000301043EA412393600268936823F4806316
:1027A000936002689368416943EA812393607047AC
:1027B0000268936823F0706393600268936823F063
:1027C00040539360B0E70268536823F4006353609A
:1027D000CAE700BF002301400100000F38B310B565
:1027E0000446036C43B1236C13F0100F0BD001208F
:1027F000002384F83C3010BDFEF7B8FB002363646F
:1028000084F83C30EFE7236C23F4885323F0020371
:1028100043F0020323642046FFF746FF0020606474
:10282000236C23F0030343F001032364E0E701205A
:102830007047000082B00023019390F83C30012BD8
:1028400000F08980012380F83C3003689A6812F018
:10285000010F13D19A6842F001029A60414B1B6844
:10286000414AA2FB03239B0C03EB4303019302E0C9
:10287000019B013B0193019B002BF9D102689368F6
:1028800013F0010F5CD0036C23F4E06323F0010329
:1028900043F480730364536813F4806F05D0036CB2
:1028A00023F4405343F480530364036C13F4805FB8
:1028B0001BD0436C23F006034364002380F83C30B4
:1028C0006FF022031360294B5B6813F01F0F27D1B1
:1028D0000368274A934211D002F58072934207D0D1
:1028E000244A934214D0002033E000234364E4E7F9
:1028F00002F50072526812F01F0FF1D19A6812F0BF
:10290000405F2AD19A6842F080429A60002020E01D
:1029100002F58072526812F0100FEFD0002018E01C
:102920000368134A934201D0002012E09A6812F023
:10293000405F14D19A6842F080429A60002008E01B
:10294000036C43F010030364436C43F001034364DE
:10295000002002B070470220FBE70020F9E70020CA
:10296000F7E700BF0000002083DE1B430023014087
:10297000002001400022014070B504460D46036866
:102980009A6812F4806F03D09B6813F4807F19D18A
:10299000FFF770FE064623681A6812F0020F20D176
:1029A000B5F1FF3FF7D0B5B923681B6813F0020FEC
:1029B000F1D1236C43F004032364002384F83C30FA
:1029C000032032E0036C43F020030364002380F80B
:1029D0003C30012029E0FFF74DFE801BA842DAD9E8
:1029E000E2E76FF012021A60236C43F40073236471
:1029F00023689A6812F0405F16D1207EB0B9DA6A77
:102A000012F4700F03D09B6813F4806F0DD1236C08
:102A100023F480732364236C13F4805F05D1236C4B
:102A200043F00103236400E0002070BD0020FCE7B8
:102A30000368D86C7047000030B482B00022019265
:102A400090F83C20012A00F0B6800346012280F86D
:102A50003C200A68092A40D90468E06892B202EB77
:102A600042021E3A4FF0070C0CFA02F220EA020270
:102A7000E2601C68E0680A8802EB42021E3A8D6838
:102A800005FA02F20243E2604A68062A3CD81C6852
:102A9000606B02EB8202053A4FF01F0C0CFA02F257
:102AA00020EA020262631C68606B4A6802EB8202E1
:102AB000053AB1F800C00CFA02F2024362631868EA
:102AC0003E4A904250D018683C4A904255D000206F
:102AD00083F83C0002B030BC70470468206992B2B1
:102AE00002EB42024FF0070C0CFA02F220EA02025B
:102AF00022611C6820690A8802EB42028D6805FA8F
:102B000002F202432261BFE70C2A16D81D68286B27
:102B100002EB8202233A1F2404FA02F220EA0202A4
:102B20002A631D68286B4A6802EB8202233A0C88EC
:102B300004FA02F202432A63C1E71D68E86A02EB65
:102B40008202413A1F2404FA02F220EA0202EA62F7
:102B50001D68E86A4A6802EB8202413A0C8804FA6E
:102B600002F20243EA62AAE70A68122AABD11448C9
:102B7000426842F480024260A5E70A68103A012ADE
:102B8000A5D80F48426842F4000242600A68102A41
:102B90009DD10C4A12680C49A1FB0212920C02EB67
:102BA00082025200019202E0019A013A0192019AD6
:102BB000002AF9D18BE702208CE700BF00200140FA
:102BC000002301400000002083DE1B43002800F0AA
:102BD000A18038B5044690F82030D3B1226813683C
:102BE00043F001031360FFF745FD054623685A686B
:102BF00012F0010F10D1FFF73DFD401B0A28F5D957
:102C0000636A43F400336362052384F820300120B3
:102C100038BDFEF707FAE1E71A6822F002021A60EF
:102C2000FFF728FD054623685A6812F0020F0DD001
:102C3000FFF720FD401B0A28F5D9636A43F40033EF
:102C40006362052384F820300120E1E7227E012A17
:102C50003DD01A6822F080021A60637E012B3BD0BF
:102C60002268136823F040031360A37E012B39D040
:102C70002268136823F020031360E37E012B37D012
:102C80002268136843F010031360237F012B35D0B3
:102C90002268136823F008031360637F012B33D08D
:102CA0002268136823F004031360A368E2681343E7
:102CB00022691343626913436268013A216813432E
:102CC000CB6100206062012384F82030A0E71A68FD
:102CD00042F080021A60C0E72268136843F04003A4
:102CE0001360C2E72268136843F020031360C4E74F
:102CF0002268136823F010031360C6E72268136884
:102D000043F008031360C8E72268136843F0040324
:102D10001360CAE70120704790F82030013BDBB216
:102D2000012B05D9436A43F4802343620120704795
:102D300030B5464BD3F8002242F00102C3F800221E
:102D4000D3F8002222F47C52C3F80022D3F80022E8
:102D5000486A42EA0022C3F800224A6902F01F02D0
:102D6000012000FA02F2D3F81C026FEA020C20EAFA
:102D70000200C3F81C02CB69C3B9344BD3F80C0270
:102D80000CEA0000C3F80C028C884869CD6844EA5C
:102D90000544483043F830408C68088840EA0440D5
:102DA0004C6904F1480E03EBCE035860CB69012B4C
:102DB0001ED08B69002B33D12448D0F804320CEAA2
:102DC0000303C0F804320B698BBB2048D0F81432DF
:102DD0000CEA0303C0F814320B6A012B2ED01B4AF5
:102DE000D2F8003223F00103C2F80032002030BDD7
:102DF000164BD3F80C021043C3F80C028C884869B8
:102E00000D6844EA0544483043F8304088894C69ED
:102E10008D6840EA0540483403EBC4035860C8E7B6
:102E20000A48D0F804321343C0F80432CBE707480D
:102E3000D0F814321343C0F81432CDE70349D1F867
:102E40001C321343C1F81C32C9E700BF00640040C4
:102E500070B5044690F82050EDB2012D06D0436ABB
:102E600043F4002343620125284670BD022380F805
:102E700020300268136823F001031360FFF7FAFBA8
:102E8000064623685B6813F0010F0CD0FFF7F2FBD6
:102E9000831B0A2BF5D9636A43F40033636205236D
:102EA00084F82030E0E700256562DDE790F820C077
:102EB0000CF1FF3C5FFA8CFCBCF1010F00F2958035
:102EC00030B451B90468E46814F0030F10D1436AB8
:102ED00043F400134362012077E00468246914F08E
:102EE000030F05D1436A43F40013436201206CE0F1
:102EF00001F11B04240105682C5904F004049460BA
:102F0000002C64D101F11B04240105682C59640DC7
:102F10001460046801F11B0C4FEA0C1C54F80C40BF
:102F200004F00204D46004686444646804F00F048C
:102F30001461046864446468C4F3072494610468F9
:102F400064446468240C5461026802EB0112D2F8F4
:102F5000B8211A70026802EB0112D2F8B821C2F34C
:102F600007225A70026802EB0112D2F8B821C2F3AC
:102F700007429A70026802EB0112D2F8B821120ED1
:102F8000DA70026802EB0112D2F8BC211A710268F1
:102F900002EB0112D2F8BC21C2F307225A71026877
:102FA00002EB0112D2F8BC21C2F307429A71026807
:102FB00002EB0112D2F8BC21120EDA7179B9026863
:102FC000D36843F02003D360002030BC704701F188
:102FD0001B04240105682C59E408546099E7026831
:102FE000136943F020031361EEE7436A43F480233F
:102FF00043620120704790F82030013BDBB2012B87
:1030000001D90020704721B90368D86800F0030097
:1030100070470368186900F00300704790F820308B
:10302000013BDBB2012B05D9436A43F480234362A1
:1030300001207047026853690B43536100207047B9
:1030400070477047704770477047704770477047C8
:103050007047704770472DE9F84F054603685C6973
:10306000D3F804809F68D3F80CB0D3F810A0D3F83D
:10307000189014F001063BD017F0010616D001227B
:103080009A6017F0020F08D117F0040F0CD117F057
:10309000080606D04FF4805608E0FFF7D1FF00265F
:1030A00004E0FFF7D0FF01E04FF4006617F4807FE3
:1030B0000DD02B684FF480729A6017F4007F40F0B7
:1030C000868017F4806F00F0868046F4005617F46F
:1030D000803F0DD02B684FF480329A6017F4003F88
:1030E00040F0838017F4802F00F0838046F4004680
:1030F00014F0080F07D01BF0100F04D046F4007630
:103100002B681022DA6014F0040F02D01BF0080FB5
:1031100079D114F0020F04D02B68DB6813F0030F91
:1031200078D114F0400F07D01AF0100F04D046F4F5
:1031300080662B6810221A6114F0200F02D01AF05A
:10314000080F6BD114F0100F04D02B681B6913F01B
:10315000030F6AD114F4003F02D018F0100F68D1A9
:1031600014F4803F02D018F0080F69D114F4004F16
:103170007AD018F0040F74D014F4807F04D019F0C2
:10318000010F01D046F0010614F4007F04D019F0BD
:10319000020F01D046F0020614F4806F04D019F03B
:1031A000040F01D046F0040614F4006F59D019F052
:1031B000700956D0B9F1400F65D058D8B9F1200F39
:1031C0005ED0B9F1300F42D146F0200644E02846E7
:1031D000FFF737FF7BE717F4006F02D046F4804615
:1031E00075E72846FFF730FF71E72846FFF72AFF0B
:1031F0007EE717F4002F02D046F4803678E72846A1
:10320000FFF723FF74E72B680822DA602846FFF7F0
:103210001DFF7EE728460AF04DFC82E72B68082256
:103220001A612846FFF713FF8CE728460AF04CFC8A
:1032300090E72B6810225A602846FFF709FF8FE7B6
:103240002B6808225A602846FFF703FF8EE7B9F182
:10325000100F01D146F008062A68936923F0700325
:1032600093612B6804225A609EB9BDE8F88FB9F1CA
:10327000500F0BD0B9F1600FEED146F48076EBE73A
:1032800046F01006E8E746F04006E5E746F080061F
:10329000E2E76B6A33436B622846FFF7DBFEE4E745
:1032A000002808DB0901C9B200F1604000F5614067
:1032B00080F80013704700F00F000901C9B2014BFC
:1032C0001954704714ED00E000B500F00700C0F19C
:1032D000070CBCF1040F28BF4FF0040C031D062B94
:1032E0000FD9C31E4FF0FF3E0EFA0CF021EA000189
:1032F00099400EFA03FE22EA0E0241EA02005DF84E
:1033000004FB0023EEE70000074AD36823F4E063E0
:103310001B041B0C000200F4E060034343F0BF6396
:1033200043F40033D360704700ED00E010B504466D
:10333000054BD868C0F30220FFF7C6FF01462046C0
:10334000FFF7AEFF10BD00BF00ED00E0002807DB77
:1033500000F01F02400901239340024A42F8203046
:10336000704700BF00E100E058B110B50446437952
:103370001BB101236371002010BD0371FDF706FF2F
:10338000F7E701207047000010B40368D9B2103984
:103390000C4AA2FB014212090B4CA25CC2655F29D8
:1033A00009D923F47F7323F0030304338365806D0D
:1033B0005DF8044B704723F47F7323F003038365A8
:1033C000F5E700BFABAAAAAAE8500108836A8269A0
:1033D00092B9012B0AD0022B02D00BB1002070470A
:1033E000C36A13F0807F28D100207047C36AB3F10D
:1033F000C07F24D000207047B2F5005F09D0022BB7
:1034000025D9032B25D1C36A13F0807F23D1002057
:103410007047032B03D8DFE803F01404140A0020DC
:103420007047C36A13F0807F0DD100207047C36AD4
:10343000B3F1C07F09D00020704701207047012000
:10344000704701207047012070470120704701201C
:1034500070470020704701207047000070B5044697
:10346000FFF708F9002C5BD00546022384F83530BD
:10347000002384F834302268136823F001031360BA
:1034800023681A6812F0010F0AD0FFF7F3F8431B04
:10349000052BF5D920236365032084F8350070BD22
:1034A0001A68204911406268A0680243E06802433C
:1034B0002069024360690243A0690243E069024354
:1034C000206A02430A43616A04291ED01A602668F2
:1034D000756925F00705636A1D43042B07D1A36AAC
:1034E0001D43E36A1BB12046FFF770FF90B9756179
:1034F0002046FFF749FFE26D3F23934083600020A1
:103500006065012384F83530C9E7E16A206B014327
:103510000A43DBE740236365012084F83500BEE7FA
:103520000120BCE73F8010F070B50446866DFFF7C0
:10353000A1F894F83530DBB2022B06D08023636506
:10354000002384F83430012070BD054622681368DA
:1035500023F0160313602268536923F0800353613C
:10356000236CE3B12268136823F008031360226818
:10357000136823F00103136023681B6813F0010F25
:1035800011D0FFF777F8431B052BF5D9202363658E
:10359000032084F83500002384F83430D4E7A36C8A
:1035A000002BDFD1E3E7E26D3F239340B3600123BB
:1035B00084F83530002084F83400C5E790F83530C1
:1035C000DBB2022B03D08023436501207047052323
:1035D00080F835300268136823F00103136000207F
:1035E00070470000F0B583B0044600230193724B8E
:1035F0001D68724BA3FB0535AD0A876D3E68C26D31
:1036000008239340334210D003681A6812F0040F65
:103610000BD01A6822F004021A60C26D082393408E
:10362000BB60436D43F001034365E26D01239340AA
:10363000334209D02268526912F0800F04D0BB6077
:10364000636D43F002036365E26D042393403342EC
:1036500009D02268126812F0020F04D0BB60636DBB
:1036600043F004036365E26D10239340334224D09A
:103670002268126812F0080F1FD0BB6023681A6816
:1036800012F4802F0DD01B6813F4002F04D1236C8B
:103690009BB12046984710E0A36C73B12046984731
:1036A0000BE01A6812F4807F03D11A6822F0080236
:1036B0001A60236C0BB120469847E26D202393409B
:1036C000334255D02268126812F0100F50D0BB6000
:1036D00094F83530DBB2052B0ED023681A6812F44B
:1036E000802F33D01B6813F4002F2AD1636C002B7A
:1036F0003ED0204698473BE02268136823F016032B
:1037000013602268536923F080035361236CA3B1D3
:103710002268136823F008031360E26D3F2393408F
:10372000BB60012384F83530002384F83430236DE6
:10373000002B3FD0204698473CE0A36C002BE7D1FC
:10374000EBE7E36BA3B12046984711E01A6812F447
:10375000807F09D11A6822F010021A60012384F8D0
:103760003530002384F83430E36B0BB120469847A2
:10377000636DFBB1636D13F0010F17D0052384F85F
:1037800035302268136823F001031360019B013375
:103790000193AB4204D823681B6813F0010FF5D1E5
:1037A000012384F83530002384F83430E36C0BB106
:1037B0002046984703B0F0BD00000020B5814E1BA5
:1037C00010B40A490C6924F440740C610C6944F487
:1037D00040740C610C6944F001040C610260BFF399
:1037E0006F8F43605DF8044B704700BF003C0240A0
:1037F000074B1A6922F440721A611A6942F4007286
:103800001A611A6942F001021A610160704700BF33
:10381000003C0240074B1A6922F440721A611A698F
:1038200042F480721A611A6942F001021A61018041
:10383000704700BF003C0240064B1A6922F44072F8
:103840001A611A691A611A6942F001021A6101705B
:10385000704700BF003C0240204BDB6813F0100FA4
:1038600007D01F4AD36943F01003D3611B4B1022CA
:10387000DA601A4BDB6813F0200F07D0184AD369BF
:1038800043F00803D361154B2022DA60134BDB6849
:1038900013F0400F07D0124AD36943F00403D361F9
:1038A0000E4B4022DA600D4BDB6813F0800F07D01F
:1038B0000B4AD36943F00203D361084B8022DA60DC
:1038C000064BDB6813F0020F07D0054AD36943F0BB
:1038D0002003D361014B0222DA607047003C0240B2
:1038E000CC100020094B1B69002B01DB0020704726
:1038F000064B074A5A6002F188325A601B69002B56
:1039000001DB002070470120704700BF003C0240EF
:1039100023016745034A136943F000431361002004
:10392000704700BF003C024038B50446144B0022EB
:10393000DA61FEF79FFE0546124BDB6813F4803F09
:103940000AD0B4F1FF3FF7D024B1FEF793FE401B3D
:10395000A042F1D903200DE00A4BDB6813F0010F00
:1039600002D0084B0122DA60064BDB6813F0F20F3D
:1039700001D1002038BDFFF76FFF0120FAE700BF3B
:10398000CC100020003C0240F8B516461B4A127EBF
:10399000012A30D004460D461F46184B01221A76E4
:1039A0004CF25030FFF7C0FF90B9ACB1012C18D0E9
:1039B000022C1BD032463B462846FFF701FF4CF253
:1039C0005030FFF7B1FF0E4A136923F00103136172
:1039D0000A4B00221A76F8BDF1B22846FFF72CFFF9
:1039E000EDE7B1B22846FFF715FFE8E73146284674
:1039F000FFF7FEFEE3E70220EDE700BFCC1000205A
:103A0000003C0240074B1A6922F440721A611A699D
:103A100042F004021A611A6942EA002242F480323A
:103A20001A617047003C024001291BD002291CD0BA
:103A300009B14FF440710E4B1A6922F440721A61B9
:103A40001A690A431A611A6922F0F8021A611A699E
:103A500042EAC00040F0020018611A6942F4803264
:103A60001A6170474FF48071E5E74FF40071E2E7A7
:103A7000003C0240164B1B6813F4007F10D0144B1F
:103A80001A6822F400721A601A6842F400621A601E
:103A90001A6822F400621A601A6842F400721A600E
:103AA0000B4B1B6813F4806F10D0094B1A6822F47B
:103AB00080621A601A6842F480521A601A6822F40E
:103AC00080521A601A6842F480621A60704700BF20
:103AD000003C0240F8B5224B1B7E012B3ED0044631
:103AE0000E461F4B01221A764CF25030FFF71CFF96
:103AF000074670BB4FF0FF3333602368012B16D0AD
:103B0000A568E368A2681344AB4220D9217C28460B
:103B1000FFF78AFF4CF25030FFF706FF114A136996
:103B200023F0FA031361074680B90135E9E76168BC
:103B3000207CFFF767FF4CF25030FFF7F5FE074699
:103B4000084A136923F00403136100E03560FFF7AE
:103B500091FF034B00221A763846F8BD0227FBE797
:103B6000CC100020003C024000230F2B00F2E98023
:103B700070B582B065E085684FEA430E032404FA0D
:103B80000EF425EA0405CC6804FA0EF42C43846094
:103B9000446824EA02044A68C2F300129A402243AD
:103BA00042605CE0DC08083450F8242003F007058C
:103BB000AD004FF00F0E0EFA05FE22EA0E0E0A6956
:103BC000AA4042EA0E0240F824205CE0072200E00E
:103BD000002202FA0EF22A4302345A4D45F82420FC
:103BE000594A94686FEA0C0224EA0C054E6816F4F0
:103BF000801F01D04CEA0405534CA560E46802EA3A
:103C000004054E6816F4001F01D04CEA04054E4C22
:103C1000E560646802EA04054E6816F4003F01D0CE
:103C20004CEA0405484C6560246822404D6815F450
:103C3000803F01D04CEA0402434C226001330F2B39
:103C40007DD801229A400C6804EA020C32EA04048E
:103C5000F4D14C6804F00304013C012C8BD94A6870
:103C600002F00302032A09D0C4685D000322AA40BF
:103C700024EA02048A68AA402243C2604A6802F029
:103C80000302022A8ED004684FEA430E032202FA8E
:103C90000EF224EA02044A6802F0030202FA0EF26B
:103CA000224302604A6812F4403FC7D000220192CA
:103CB000264A546C44F480445464526C02F48042AA
:103CC0000192019A9C08A51C1E4A52F8255003F047
:103CD000030E4FEA8E0E0F2202FA0EF225EA0205BB
:103CE0001B4A90423FF474AF02F5806290421AD0B2
:103CF00002F58062904218D002F58062904216D0A0
:103D000002F58062904214D002F58062904212D097
:103D100002F58062904210D002F5806290423FF43A
:103D200055AF082255E7012253E7022251E703224B
:103D30004FE704224DE705224BE7062249E702B090
:103D400070BD704700380140003C0140003802401F
:103D5000000002400AB18161704709048161704727
:103D600008B5054B5B69034200D108BD024B5861A1
:103D700005F028FAF9E700BF003C01402DE9F043C7
:103D800083B0D0F8008001EBC10300EB8303DA6D50
:103D90005B6D9A4254D807460C469B1A01EBC10250
:103DA00000EB8202926C9A4200D31A4602F1030998
:103DB0004FEA990915E006F103094FEA990904EB66
:103DC000C40507EB8505E96C3B7C0093B3B2E2B216
:103DD000404602F034FDEB6C3344EB64EB6D33444E
:103DE000EB6508EB441303F510639B699BB24B45ED
:103DF00012D304EBC40307EB8303DA6D5B6D9A42C5
:103E00000AD24BB19B1A04EBC40207EB8202966CF8
:103E10009E42D0D31E46CEE704EBC40307EB8307D4
:103E20007A6DFB6D9A420FD804F00F040122A24074
:103E3000D8F8343823EA0203C8F83438002000E008
:103E4000012003B0BDE8F0830020FAE770B5044616
:103E50000D460068066C00EB411303F530639A6869
:103E60002169012911D038498E4256D03DB905EB60
:103E7000C50304EB8303D3F89432002B5ED0E9B280
:103E8000204604F0DDFD002070BD12F0080F09D0BF
:103E90002E498E42F7D912F4004FF4D04FF400426D
:103EA0009A60F0E712F0200F02D020229A60EAE731
:103EB00012F0280FE7D125498E4206D912F4004F9F
:103EC00003D04FF400429A60DDE705EBC50204EB36
:103ED0008202D2F898121B69C3F31203CB1AC2F8FC
:103EE0009C327DB905EBC50204EB8202D2F8942224
:103EF0006AB105EBC50204EB8202D2F88C121944B8
:103F0000C2F88C12E9B2204604F09AFDBBE704F235
:103F1000C442012102F096FEF4E712F4004F03D0F0
:103F20004FF400429A60AEE712F0200F01D0202239
:103F30009A60E9B2204604F083FDA4E704F2C4428B
:103F4000002102F07FFE9AE70A31544F0A30544FA5
:103F500038B5044603681D6C03EB4113D3F8081B06
:103F60000E4A954207D903F5306311F4004F02D091
:103F70004FF400429A60204604F05AFD074B9D42E0
:103F800002D92369012B01D0002038BD04F2C442BC
:103F90000121206802F056FEF6E700BF0A30544FB8
:103FA00090F8BC34012B0DD010B50446012380F8E5
:103FB000BC3480F83810006802F0F0FD002084F86E
:103FC000BC0410BD0220704738B505468C4611F080
:103FD000800F29D101F00F0E0EEBCE04A40004F5E2
:103FE0001E740444211D0EEBCE0E00EB8E0E00203D
:103FF0008EF87D020CF00F0C81F800C0CA600B71C6
:104000004A780AB1A1F808C0022B1DD095F8BC343B
:10401000012B1CD0012385F8BC34286802F0D1FAAA
:10402000002085F8BC0438BD01F00F0000EBC00192
:10403000890038312944043100EBC00005EB8000D1
:10404000012480F83D40D5E700234B71DEE70220D4
:10405000E9E710B501F00F0404EBC401890001F594
:104060001E710144043104EBC40C00EB8C0CCCF841
:104070008C22CCF894320023CCF89C328CF87D3220
:104080008CF87C420369012B06D064B9DAB200686F
:1040900002F0E4FA002010BD04EBC40C00EB8C0C21
:1040A000CCF89022F1E7DAB2006802F0DFFBF1E72A
:1040B00010B501F00F0404EBC4018900383101444C
:1040C000043104EBC40C00EB8C0CCCF84C20CCF885
:1040D00054300023CCF85C3001238CF83D308CF850
:1040E0003C400369012B06D064B9DAB2006802F0E3
:1040F000B5FA002010BD04EBC40C00EB8C0CCCF81E
:104100005020F1E7DAB2006802F0B0FBF1E738B511
:1041100001F00F054268954239D804460B4611F06C
:10412000800F1FD101EBC101890001F51E7101440F
:10413000043103EBC30300EB8303002283F87D22E9
:1041400001238B700D7094F8BC34012B21D0012316
:1041500084F8BC34206802F0C6FC8DB1002084F8DD
:10416000BC0438BD05EBC501890038310144043178
:1041700005EBC50300EB8303012283F83D20DFE755
:1041800004F2C442217C206802F05CFDE6E70120D5
:10419000E7E70220E5E701F00F034268934231D8D8
:1041A00010B5044611F0800F1ED103EBC301890046
:1041B00001F51E710144043103EBC30200EB8202DE
:1041C000002082F87D0200228A700B7094F8BC34C3
:1041D000012B19D0012384F8BC34206802F0B0FC14
:1041E000002084F8BC0410BD03EBC3018900383102
:1041F0000144043103EBC30200EB8202012082F888
:104200003D00E0E7012070470220ECE708B511F01F
:10421000800F0CD101F00F0101EBC101890001F504
:104220001E7101440431006802F0AAFA08BD01F0D1
:104230000F0101EBC1018900383101440431F2E77B
:104240002DE9F04F83B004460568284602F0E5FCEE
:1042500010B103B0BDE8F08F0646206802F0AEFC56
:104260000028F6D005F50067BB68C3F30D23C4F83A
:10427000FC34206802F0A2FC10F0020F04D0226887
:10428000536903F002035361206802F097FC10F0B9
:10429000100F13D02268936923F010039361D5F8AF
:1042A000208008F00F09C8F34343022B4BD0062BA4
:1042B0006FD02268936943F010039361206802F085
:1042C0007DFC10F4002F76D1206802F077FC10F40A
:1042D000802F40F0E080206802F070FC0028C0F2DF
:1042E0006381206802F06AFC10F4006F09D0BB689B
:1042F00013F0010F40F070812268536903F40063EA
:104300005361206802F05AFC10F4805F40F068812D
:10431000206802F053FC10F4005F40F0B581206883
:1043200002F04CFC10F0080F40F0C681206802F04B
:1043300045FC10F0800F00F0D981AB6923F08003B9
:10434000AB610126C2E147F6F07318EA030FB0D063
:104350004FEA181A4FEAC903019309EBC90B04EBA2
:104360008B0BC8F30A12DBF88C12284602F098FB7C
:10437000DBF88C32CAF30A0A5344CBF88C32DBF8F0
:104380009C32019A4A4404EB82025344C2F89C32A4
:104390008FE7082204F2C441284602F081FB09EBB2
:1043A000C90304EB8303D3F89C22C8F30A184244E0
:1043B000C3F89C227DE7206802F004FC8046B146E9
:1043C00035E005EB49130122C3F8082B4946204686
:1043D000FFF73CFD3CE005EB49130822C3F8082B2E
:1043E00049462046FFF7B4FD35E009EBC90304EB6D
:1043F000830393F87F32012B41D005EB491302224E
:10440000C3F8082B1AF0200F04D005EB4913202223
:10441000C3F8082B1AF4005F05D005EB49134FF4DD
:104420000052C3F8082B09F101094FEA5808B8F106
:10443000000F3FF449AF18F0010FF4D05FFA89FB89
:104440005946206802F0CEFB824610F0010FB8D129
:104450001AF0080FBFD11AF0100F04D005EB491362
:104460001022C3F8082B1AF0020FCBD06B6913F09F
:10447000800FBAD07B6843F480637B60B5E709EBBB
:10448000C90304EB8303002283F87F2259462046A8
:1044900004F028FBB1E7206802F09CFB8046B1469F
:1044A00025E05946204604F0D7FA1AF0080F04D048
:1044B00005EB49130822C3F808291AF0100F04D09D
:1044C00005EB49131022C3F808291AF0400F04D055
:1044D00005EB49134022C3F808291AF0020F40D116
:1044E0001AF0800F5BD109F101094FEA5808B8F1C1
:1044F000000F3FF4F0AE18F0010FF4D05FFA89FB23
:104500005946206802F077FB824610F0010FCCD0AC
:1045100009F00F02012101FA02F27B6B23EA020388
:104520007B6305EB4913C3F8081923698B42B8D1A3
:1045300009EBC90304EB8303DA6C996C0A44DA646F
:10454000B9F1000FADD109EBC90304EB83035B6D37
:10455000002BA6D104F2C4420121206802F072FBB4
:104560009FE74946284601F0F3FF09EBC90304EB36
:10457000830393F83F30012B05D005EB491302224A
:10458000C3F80829ACE709EBC90304EB8303002255
:1045900083F83F205946204604F0AAFAEDE7494641
:1045A0002046FFF7EBFB9EE77B6823F001037B606F
:1045B00094F8F434012B08D0204604F08DFA2268D8
:1045C000536903F0004353618BE6002184F8F4142F
:1045D000204600F017F9F2E7204604F065FA8BE672
:1045E0007B6823F001037B601021206801F0B0FF9D
:1045F0001AE005EB46134FF67F31C3F80819D3F8DC
:10460000002922F40012C3F80029C3F8081BD3F8CC
:10461000002B22F40012C3F8002BD3F8002B42F039
:104620000062C3F8002B01366368B342E1D8FB692E
:1046300043F00113FB61236BDBB1D7F8843043F007
:104640000B03C7F884307B6C43F00B037B64D5F815
:10465000003823F4FE63C5F8003804F2C442217C1C
:10466000206802F0EFFA2268536903F48053536123
:104670004EE67B6943F4005343F02B037B613B69B7
:1046800043F00B033B61E2E7206802F0CAFA2068BE
:1046900001F086FFE060266800F0B6FB0146227B51
:1046A000304601F0E3FE204604F0E7F92268536942
:1046B00003F40053536132E6204604F0D8F922682F
:1046C000536903F00803536130E601366368B3426F
:1046D0000CD906EBC60304EB830393F87F32012B5E
:1046E000F3D1F1B22046FFF791FDEEE7206802F02A
:1046F00065FA10F4801F27D1206802F05FFA10F4E9
:10470000001F5BD0012328E001366368B3421DD946
:1047100005EB4613D3F8002906EBC60304EB83032D
:1047200093F84030012BEFD1002AEDDA06EBC603F7
:1047300004EB8303012283F83F2066F07F01C9B2B6
:104740002046FFF763FDDFE70126DEE722685369B5
:1047500003F480135361CFE7013362689A4228D98A
:1047600005EB4312D2F8001B03EBC30204EB8202F9
:1047700092F88022012AEFD10029EDDA01F480318C
:10478000D4F8FC2402F001029142E5D103EBC3020C
:1047900004EB8202012182F87F12AA6942F08002B2
:1047A000AA616A6912F0800FD6D17B6843F4007366
:1047B0007B602268536903F400135361206802F0A0
:1047C000FDF910F0804F10D1206802F0F7F910F0D9
:1047D000040F3FF43EAD23685D6815F0040F0DD162
:1047E000226853682B43536033E5204604F086F972
:1047F0002268536903F080435361E5E7204604F0E3
:1048000083F9EDE770470000002800F0E08170B503
:1048100082B00446036813F0010F3BD09F4B9B68A6
:1048200003F00C03042B2CD09C4B9B6803F00C036F
:10483000082B21D06368B3F5803F4FD0B3F5A02F8C
:1048400052D0964B1A6822F480321A601A6822F409
:1048500080221A606368002B50D0FDF70BFF0546DD
:104860008E4B1B6813F4003F14D1FDF703FF401B70
:104870006428F5D90320B1E1884B5B6813F4800FFD
:10488000D8D0864B1B6813F4003F03D06368002B1D
:1048900000F09F81236813F0020F54D07F4B9B6878
:1048A00013F00C0F3ED07D4B9B6803F00C03082BDC
:1048B00033D0E368002B68D0794B01221A60FDF7F2
:1048C000D9FE0546754B1B6813F0020F54D1FDF756
:1048D000D1FE401B0228F5D903207FE16F4A1368FF
:1048E00043F480331360B5E76C4B1A6842F48022BE
:1048F0001A601A6842F480321A60ABE7FDF7BAFE1C
:104900000546664B1B6813F4003FC3D0FDF7B2FEAB
:10491000401B6428F5D9032060E1604B5B6813F409
:10492000800FC6D15D4B1B6813F0020F03D0E36804
:10493000012B40F05081594A136823F0F803216994
:1049400043EAC1031360236813F0080F42D0636980
:104950006BB3534B0122C3F8802EFDF78BFE054647
:104960004E4B5B6F13F0020F34D1FDF783FE401BFB
:104970000228F5D9032031E1484A136823F0F803EF
:10498000216943EAC1031360DDE7454B00221A6049
:10499000FDF770FE0546414B1B6813F0020FD2D0A5
:1049A000FDF768FE401B0228F5D9032016E13C4BB9
:1049B0000022C3F8802EFDF75DFE0546374B5B6F86
:1049C00013F0020F06D0FDF755FE401B0228F5D963
:1049D000032003E1236813F0040F77D02F4B1B6CE7
:1049E00013F0805F33D1002301932C4B1A6C42F0FB
:1049F00080521A641B6C03F080530193019B0125C4
:104A0000284B1B6813F4807F23D0A368012B34D07C
:104A1000052B38D0214B1A6F22F001021A671A6F4A
:104A200022F004021A67A368002B3DD0FDF722FE96
:104A300006461A4B1B6F13F0020F46D1FDF71AFE04
:104A4000801B41F288339842F3D90320C6E0002549
:104A5000D6E7144A136843F480731360FDF70AFE27
:104A60000646104B1B6813F4807FCED1FDF702FE83
:104A7000801B0228F5D90320B0E0084A136F43F0E9
:104A800001031367CFE7054B1A6F42F004021A6760
:104A90001A6F42F001021A67C5E700BF00380240F2
:104AA0000000474200700040FDF7E4FD0646524B0F
:104AB0001B6F13F0020F08D0FDF7DCFD801B41F2E5
:104AC00088339842F3D9032088E0EDB9A369002B1D
:104AD00000F08380484A926802F00C02082A51D004
:104AE000022B17D0454B00221A66FDF7C3FD044682
:104AF000414B1B6813F0007F42D0FDF7BBFD001B4C
:104B00000228F5D9032069E03B4A136C23F0805357
:104B10001364DBE7394B00221A66FDF7ABFD05464F
:104B2000354B1B6813F0007F06D0FDF7A3FD401B3B
:104B30000228F5D9032051E0E369226A1343626A2F
:104B400043EA8213A26A5208013A43EA0243E26A44
:104B500043EA0263284A5360284B01221A66FDF794
:104B600089FD0446244B1B6813F0007F06D1FDF736
:104B700081FD001B0228F5D903202FE000202DE045
:104B800000202BE0012B2BD01B4B5B6803F4800132
:104B9000E269914226D103F03F02216A8A4223D181
:104BA000616A47F6C0721A40B2EB811F1ED103F44E
:104BB0004031A26A5208013AB1EB024F18D103F01A
:104BC0007063E26AB3EB026F14D1002006E00120AB
:104BD0007047012002E0012000E0002002B070BD1B
:104BE0000120FBE70120F9E70120F7E70120F5E7C5
:104BF0000120F3E70120F1E70038024000004742BE
:104C000008B5264B9B6803F00C03042B41D0082BFE
:104C100041D1224B5A6802F03F025B6813F4800FC7
:104C200012D01E4B5968C1F388111D480023A1FB07
:104C30000001FBF7D1FC194B5B68C3F3014301335F
:104C40005B00B0FBF3F027E0144B5868C0F388100A
:104C50004FEA401CBCEB000C6EEB0E0E4FEA8E13BD
:104C600043EA9C634FEA8C11B1EB0C0163EB0E033A
:104C7000DB0043EA5173C90011EB000C43F1000360
:104C8000990200234FEA8C2041EA9C51FBF7A4FCD7
:104C9000D1E7034800E0034808BD00BF00380240E8
:104CA000001BB7000024F400002800F09B8070B5C2
:104CB0000D4604464F4B1B6803F007038B4208D296
:104CC000CBB24C4A1370136803F007038B4240F0D9
:104CD0008B80236813F0020F17D013F0040F04D059
:104CE000454A936843F4E0539360236813F0080F38
:104CF00004D0414A936843F4604393603E4A93680A
:104D000023F0F003A1680B439360236813F0010FB5
:104D100032D06368012B21D09A1E012A25D9364A48
:104D2000126812F0020F61D033498A6822F0030240
:104D300013438B60FDF79EFC06462F4B9B6803F0E8
:104D40000C036268B3EB820F16D0FDF793FC801B57
:104D500041F288339842F0D9032042E0264A126893
:104D600012F4003FE0D101203BE0234A126812F028
:104D7000007FD9D1012034E01E4B1B6803F00703EC
:104D8000AB4207D9EAB21B4B1A701B6803F007034A
:104D9000AB422DD1236813F0040F06D0164A936856
:104DA00023F4E053E1680B439360236813F0080F8A
:104DB00007D0114A936823F46043216943EAC10391
:104DC0009360FFF71DFF0C4B9B68C3F303130B4A63
:104DD000D35CD8400A4B18600A4B1868FCF748FDB2
:104DE000002070BD012070470120FAE70120F8E79C
:104DF0000120F6E7003C024000380240D85001088C
:104E00000000002008000020014B1868704700BF18
:104E10000000002008B5FFF7F7FF044B9B68C3F3C1
:104E20008223034AD35CD84008BD00BF003802404B
:104E3000D050010808B5FFF7E7FF044B9B68C3F3A8
:104E40004233034AD35CD84008BD00BF003802405B
:104E5000D05001080F2303600B4B9A6802F0030245
:104E600042609A6802F0F00282609A6802F4E052AE
:104E7000C2609B68DB0803F4E0530361034B1B68CB
:104E800003F007030B60704700380240003C02400B
:104E900098B110B5044643795BB10223637122686F
:104EA000136843F004031360012363710020A060C2
:104EB00010BD0371FCF7E6FBEFE70120704700002F
:104EC0002DE9F04782B00546884617461E46FDF795
:104ED000D1FB0A9B1B1A03EB0609FDF7CBFB8246AD
:104EE000284B1B68C3F3CB3309FB03F301932B68F7
:104EF0009C6838EA04040CBF01230023BB423DD068
:104F0000B6F1FF3FF3D0FDF7B5FBA0EB0A00484533
:104F100007D2019A02B14A46019B013B0193914697
:104F2000E5E72A68536823F0E00353606B68B3F544
:104F3000827F0BD0AB6AB3F5005F14D0012385F8F4
:104F40005130002385F85030032018E0AB68B3F5EA
:104F5000004F02D0B3F5806FECD12A68136823F0BC
:104F600040031360E6E72A68136823F400531360D4
:104F70002A68136843F400531360DFE7002002B08F
:104F8000BDE8F0870000002010B584B00446164B41
:104F90001868164BA3FB0030400D4FF47A7303FBE7
:104FA00000F003906368B3F5827F0BD0039BBBB125
:104FB000039B013B039323689B6813F0800FF5D19B
:104FC00000200EE000920B46002280212046FFF7D1
:104FD00077FF30B1636D43F020036365032000E089
:104FE000002004B010BD00BF00000020819F5E16AD
:104FF00000285AD010B50446436A33B94368B3F564
:10500000827F05D00023C36102E000230361436176
:105010000023A36294F85130002B40D0022384F87F
:1050200051302268136823F040031360636803F46F
:105030008273A26802F404421343E26802F400623D
:105040001343226902F002021343626902F0010273
:105050001343A26902F400721343E26902F03802BA
:105060001343226A02F080021343A26A02F4005240
:10507000216813430B60638B03F00403626A02F040
:105080001002216813434B602268D36923F4006344
:10509000D36100206065012384F8513010BD84F88D
:1050A00050302046FCF72AFBB8E7012070472DE975
:1050B000F04383B01F460A9D90F85030012B00F05A
:1050C0001081044688469146012380F85030FDF750
:1050D000D1FA064694F85130DBB26268012B0AD04F
:1050E000B2F5827F40F0E380A268002A40F0E980B8
:1050F000042B40F0E880B8F1000F00F0E680B9F131
:10510000000F00F0E480002F00F0E38094F85130AD
:10511000DBB2042B02D0052384F8513000236365F1
:10512000C4F83890E787A787C4F83080E786A78659
:105130002364636423681A6812F0400F03D11A686D
:1051400042F040021A60E368B3F5006F11D0636863
:105150000BB1012F0BD1226B236812781A73236BCA
:1051600001332363E38E9BB2013B9BB2E3860127AD
:105170006BE063680BB1012F0BD1226B236812889F
:10518000DA60236B02332363E38E9BB2013B9BB255
:10519000E38601271CE023689A6812F0010F0ED005
:1051A000E28F92B25AB1DA68A36B1A80A36B023312
:1051B000A363E38F9BB2013B9BB2E3870127FDF71B
:1051C00059FA801BA84203D3B5F1FF3F40F083801A
:1051D000E38E9BB21BB9E38F9BB2002B53D02368A5
:1051E0009A6812F0020FD6D0E28E92B2002AD2D084
:1051F000002FD0D0226B1288DA60236B0233236336
:10520000E38E9BB2013B9BB2E3860027C3E7236892
:105210009A6812F0010F0ED0E28F92B25AB1DA689A
:10522000A36B1A70A36B0133A363E38F9BB2013BA3
:105230009BB2E3870127FDF71DFA831BAB4202D324
:10524000B5F1FF3F49D1002D49D0E38E9BB213B990
:10525000E38F9BB2BBB123689A6812F0020FD6D0DD
:10526000E28E92B2002AD2D0002FD0D0226B1278D8
:105270001A73236B01332363E38E9BB2013B9BB212
:10528000E3860027C3E7324629462046FFF77CFE27
:1052900048B9A36863B901932368DA6801929B68EF
:1052A0000193019B04E020236365012000E00220BC
:1052B000012384F85130002384F8503003B0BDE856
:1052C000F0830220F4E70220F2E70120F0E701205A
:1052D000EEE70120ECE70320EAE70320E8E70320FC
:1052E000E6E70220EAE7000030B4036A23F0010396
:1052F0000362036A4268846924F0730C0C6844EA10
:105300000C0423F0020C8B6843EA0C03114DA842F5
:1053100003D005F58065A84205D123F00803CD68C8
:105320002B4323F004030B4DA84203D005F5806501
:10533000A84207D122F440724D6945EA020C8A69FD
:1053400042EA0C02426084614A684263036230BCF4
:10535000704700BF0000014030B4036A23F480733B
:105360000362036A4268C46924F0730C0C6844EA5F
:105370000C0523F400738C6843EA0423114CA0420B
:1053800003D004F58064A04206D123F40063CC6806
:1053900043EA042323F480630A4CA04203D004F5BB
:1053A0008064A04207D122F440524C6942EA0412C0
:1053B0008C6942EA04124260C5614A68C2630362B2
:1053C00030BC70470000014030B4036A23F48053BE
:1053D0000362036A4468C26922F4E6420D6842EA45
:1053E000052223F400538D6843EA0533094DA84292
:1053F00003D005F58065A84204D124F480444D69AA
:1054000044EA85144460C2614A680264036230BCA5
:10541000704700BF0000014010B4036A046A24F022
:1054200001040462846924F0F00C4CEA021223F0B7
:105430000A030B43826103625DF8044B704710B4AA
:10544000036A23F0100303628469036A24F4704C36
:105450004CEA023223F0A00343EA011382610362A3
:105460005DF8044B7047836823F070030B4343F0EF
:10547000070383607047000090F83D30DBB2012BDA
:1054800032D1022380F83D300368194A934220D07C
:10549000B3F1804F1DD0A2F57C42934219D002F5A2
:1054A0008062934215D002F58062934211D002F5DA
:1054B000784293420DD002F57052934209D0A2F582
:1054C0009432934205D01A6842F001021A6000201B
:1054D00070479A6802F00702062A07D01A6842F05D
:1054E00001021A60002070470120704700207047B9
:1054F0000000014090F83D30DBB2012B37D1022390
:1055000080F83D300268D36843F00103D36003683C
:10551000194A934220D0B3F1804F1DD0A2F57C42AE
:10552000934219D002F58062934215D002F5806251
:10553000934211D002F5784293420DD002F5705299
:10554000934209D0A2F59432934205D01A6842F0F2
:1055500001021A60002070479A6802F00702062ACA
:1055600007D01A6842F001021A600020704701203B
:1055700070470020704700BF00000140704770472F
:105580007047704710B5044603681A6912F0020F9D
:1055900011D0DA6812F0020F0DD06FF002021A611A
:1055A0000123037703689B6913F0030F70D0FFF7A3
:1055B000E6FF0023237723681A6912F0040F12D044
:1055C000DA6812F0040F0ED06FF004021A610223A1
:1055D000237723689B6913F4407F5FD02046FFF751
:1055E000CEFF0023237723681A6912F0080F12D028
:1055F000DA6812F0080F0ED06FF008021A61042367
:1056000023772368DB6913F0030F4ED02046FFF7A2
:10561000B6FF0023237723681A6912F0100F12D007
:10562000DA6812F0100F0ED06FF010021A61082322
:1056300023772368DB6913F4407F3DD02046FFF7D2
:105640009EFF0023237723681A6912F0010F03D00D
:10565000DA6812F0010F36D123681A6912F0800F50
:1056600003D0DA6812F0800F34D123681A6912F07F
:10567000400F03D0DA6812F0400F32D123681A6964
:1056800012F0200F03D0DA6812F0200F30D110BDD5
:10569000FFF774FF2046FFF773FF8AE72046FFF706
:1056A0006DFF2046FFF76CFF9BE72046FFF766FF84
:1056B0002046FFF765FFACE72046FFF75FFF204677
:1056C000FFF75EFFBDE76FF001021A612046FBF7AE
:1056D00027FFC1E76FF080021A61204600F000FB4F
:1056E000C3E76FF040021A612046FFF74AFFC5E7A3
:1056F0006FF020021A61204600F0F1FAC7E70000BF
:105700000368304A904212D0B0F1804F0FD0A2F51A
:105710007C4290420BD002F58062904207D002F5A5
:105720008062904203D002F57842904203D123F088
:1057300070034A681343234A90422AD0B0F1804F45
:1057400027D0A2F57C42904223D002F5806290429D
:105750001FD002F5806290421BD002F57842904241
:1057600017D002F57052904213D002F58062904239
:105770000FD002F5806290420BD0A2F59832904291
:1057800007D002F58062904203D002F58062904219
:1057900003D123F44073CA68134323F080034A699A
:1057A000134303608B68C3620B688362054B9842A6
:1057B00003D003F58063984201D10B690363012391
:1057C000436170470000014040B310B5044690F8B3
:1057D0003D30F3B1022384F83D30214651F8040BEB
:1057E000FFF78EFF012384F8463084F83E3084F8BA
:1057F0003F3084F8403084F8413084F8423084F8F7
:10580000433084F8443084F8453084F83D3000203B
:1058100010BD80F83C30FCF72DFADBE70120704723
:1058200040B310B5044690F83D30F3B1022384F83C
:105830003D30214651F8040BFFF762FF012384F845
:10584000463084F83E3084F83F3084F8403084F8A5
:10585000413084F8423084F8433084F8443084F88E
:10586000453084F83D30002010BD80F83C30FCF716
:10587000A7F9DBE70120704730B4036A23F0100377
:105880000362036A4468826922F4E6420D6842EAD0
:10589000052223F020038D6843EA0513114DA84229
:1058A00003D005F58065A84206D123F08003CD68BA
:1058B00043EA051323F040030A4DA84203D005F53F
:1058C0008065A84207D124F440644D6944EA850408
:1058D0008D6944EA8504446082614A688263036298
:1058E00030BC70470000014038B590F83C30012BC7
:1058F00066D004460D46012380F83C300C2A5AD865
:10590000DFE802F0075959591B595959305959596B
:1059100044000068FFF7E8FC2268936943F008033D
:1059200093612268936923F0040393612268936969
:1059300029690B43936100203EE00068FFF79CFF5C
:105940002268936943F4006393612268936923F4A6
:105950008063936122689369296943EA0123936113
:10596000002029E00068FFF7F7FC2268D36943F0C4
:105970000803D3612268D36923F00403D36122684A
:10598000D36929690B43D361002015E00068FFF754
:105990001BFD2268D36943F40063D3612268D36995
:1059A00023F48063D3612268D369296943EA012320
:1059B000D361002000E00120002384F83C3038BD92
:1059C0000220FCE710B4846824F47F4C42EA0322EE
:1059D0000A4342EA0C0282605DF8044B704790F87B
:1059E0003C30012B78D010B50446012380F83C30C0
:1059F000022380F83D300268936823F47F4323F04C
:105A0000770393600B68602B4CD029D8402B54D07F
:105A10000CD9502B22D1CA6849680068FFF7FCFCFA
:105A200050212068FFF71FFD002005E0202B0DD03E
:105A300009D9302B0AD00120012384F83D300023FE
:105A400084F83C3010BD0BB1102B05D119462068ED
:105A5000FFF709FD0020EFE70120EDE70120EBE76C
:105A6000B3F5805F34D0B3F5005F0CD1CB684A68E2
:105A700089680068FFF7A6FF2268936843F48043B3
:105A800093600020D8E7702B24D1CB684A688968DE
:105A90000068FFF797FF2268936843F077039360ED
:105AA0000020C9E7CA6849680068FFF7C8FC6021A0
:105AB0002068FFF7D8FC0020BEE7CA684968006884
:105AC000FFF7AAFC40212068FFF7CDFC0020B3E7D8
:105AD0000020B1E70120AFE70220704701F01F016D
:105AE0004FF0010C0CFA01FC036A23EA0C03036279
:105AF000036A8A40134303627047000010B50446EE
:105B00000846002942D194F83E30DBB2013B18BF71
