:020000040800F2
:100000001009002089010008F7260008752400085F
:10001000F5260008E7020008F52B000800000000A4
:10002000000000000000000000000000332700086E
:10003000F5020008000000003127000835270008FD
:10004000A3010008A3010008A3010008A301000800
:10005000A3010008A3010008F9020008A301000899
:10006000A3010008A301000855030008A30100082C
:10007000A3010008E9020008A3010008A301000889
:10008000A3010008A3010008A3010008A3010008C0
:10009000E92B0008A3010008A3010008A301000840
:1000A000A3010008A3010008A3010008A3010008A0
:1000B000A3010008A3010008B5270008A301000858
:1000C000A3010008A3010008A3010008A301000880
:1000D000A3010008A3010008D12B0008DD2B0008B4
:1000E000A3010008A3010008A301000800F002F822
:1000F00000F03AF80AA090E8000C82448344AAF188
:100100000107DA4501D100F02FF8AFF2090EBAE885
:100110000F0013F0010F18BFFB1A43F0010318473B
:10012000F432000014330000103A24BF78C878C1BC
:10013000FAD8520724BF30C830C144BF04680C60ED
:10014000704700000023002400250026103A28BF35
:1001500078C1FBD8520728BF30C148BF0B60704739
:100160001FB51FBD10B510BD00F058F81146FFF7C0
:10017000F7FF02F08DFD00F076F803B4FFF7F2FF11
:1001800003BC00F07DF8000009488047094800479B
:10019000FEE7FEE7FEE7FEE7FEE7FEE7FEE7FEE737
:1001A000FEE7FEE704480549054A064B7047000094
:1001B000B1270008ED0000081003002010090020FE
:1001C00010050020100500204FF0000200B5134676
:1001D00094469646203922BFA0E80C50A0E80C5067
:1001E000B1F12001BFF4F7AF090728BFA0E80C5018
:1001F00048BF0CC05DF804EB890028BF40F8042B11
:1002000008BF704748BF20F8022B11F0804F18BF7D
:1002100000F8012B7047704770477047754600F033
:100220002BF8AE4605006946534620F00700854688
:1002300018B020B5FFF7B6FFBDE820404FF000062C
:100240004FF000074FF000084FF0000B21F00701BE
:10025000AC46ACE8C009ACE8C009ACE8C009ACE801
:10026000C0098D46704710B50446AFF300802046A4
:10027000BDE81040FFF781BF00487047B002002082
:1002800001491820ABBEFEE72600020070470000BF
:1002900070B5044600688168C943C90717D18168F1
:1002A00021F00101816000F0C1FF05460AE000BFB6
:1002B00000F0BCFF401B022804D920688068C043BE
:1002C000C00706D020688068C043C007F0D0002077
:1002D00070BDA06A40F01000A062E06A40F001002A
:1002E000E062012070BDFEE7014800F0B1BD0000F2
:1002F0006C0200207047000010B5012000F094FE51
:10030000104C0121204600F08BFF0F49087002219C
:10031000204600F085FF0D4908700221204600F0BC
:100320007FFF0B490128D1E9000206D0401E42F1AF
:10033000FF3200BFC1E9000210BD401C42F10002C3
:10034000F8E7000000080140200000202100002004
:100350001000002010B5102000F066FE104C102197
:10036000204600F05DFF0F4908702021204600F074
:1003700057FF0D4908702021204600F051FF0B491E
:100380000128D1E9000206D0401E42F1FF3200BF31
:10039000C1E9000210BD401C42F10002F8E7000074
:1003A000000C014022000020230000201800002043
:1003B00072B6FEE7F8B50024009490F82420254694
:1003C000012A12D0012280F824204A681F23072A1C
:1003D0000DD20668776B521E02EB820293409F4358
:1003E0000B6893401F43776319E00220F8BD06684D
:1003F0000D2A0AD2376BD21F02EB820293409F4331
:100400000B6893401F43376309E0F76A0D3A02EB2C
:10041000820293409F430B6893401F43F7620A6830
:10042000072306680A2A0AD3F7680A3A02EB42024F
:1004300093409F438B6893401F43F76008E0376900
:1004400002EB420293409F438B6893401F43376106
:100450000A68102A01D0112A20D1124B02689A4250
:1004600017D193681B0219D4936843F40003936077
:100470000968102912D10C490C4A0968B1FBF2F144
:1004800001EB8101490000E0491E00910029FBD1E8
:1004900004E0816A41F020018162012480F8245047
:1004A0002046F8BD002401403000002040420F00EB
:1004B0002DE9F0414FF0000704003D467ED0A06AD0
:1004C000002628B9E66284F82460204600F07EF811
:1004D0002046FFF7DDFEA16AC90600D420B1A06A5C
:1004E00040F01000A06269E0A16A21F4885141F057
:1004F0000201A1626268E169237B0A4347EA430182
:100500000A43A1684FF48077B94209D0012907D086
:100510005FF0000194F814C0BCF1010F02D00AE0B2
:100520003946F7E7F3B1A36A43F02003A362E36A15
:1005300043F00103E3622368D3F804C02CF4694C50
:100540004CEA010CC3F804C021688B68DFF870C066
:1005500003EA0C0313438B60A168B9420BD0012955
:1005600009D00CE0DFF85CC0A3690CEB43330B430C
:1005700043F40061DFE7218A0D05A5F580152168A8
:10058000CB6A23F470032B43CB62216889680E4B3E
:100590001940914208D1E662A16A21F0020141F0BE
:1005A0000101A162BDE8F081A06A20F0020040F0E4
:1005B0001000A062E06A40F00100E0620120F1E773
:1005C000FDF7E1FF00E0FFFFFE0E1FFF10B586B054
:1005D0000021009101910291039100681549884220
:1005E00026D11548816941F400718161816901F466
:1005F00000710491816941F004018161816901F018
:1006000004010491816941F008018161806903243A
:1006100000F008000490F020CDE900046946074886
:1006200000F00EFD009469460548019400F008FDB5
:1006300006B010BD00240140001002400008014037
:10064000000C014090F82020012A07D0022A05D092
:10065000416A41F48021416201207047006842698B
:100660000A43426100207047F0B590F820500468BA
:10067000A468012D05D0022D03D0416A41F48021E8
:1006800057E014F0406F01D1E5004FD5C4F3016489
:100690000125A5401D608D684FF4C0739DB1CE68E3
:1006A00035434E6845EAC605066803EB0417F55165
:1006B0004FF4C275076805EB04150E697E51097D7C
:1006C000012905D009E00E88CD6845EA4655EBE7DB
:1006D00001684E5946F480764E511179D579567994
:1006E00041EA056195792D0445EA062529434FF431
:1006F000C676056806EB0416A9511178D57841EA4B
:100700000561957852782D0445EA022211434FF491
:10071000C475026805EB04155151006803EB041120
:10072000425842F0010242500020F0BD416A41F4BB
:10073000001141620120F0BD10B590F82030026830
:10074000012B07D0022B05D0416A41F48021416280
:10075000012010BDD2F8000240F00100C2F80002F2
:10076000087D00F01F0301209840D2F81C3283431B
:10077000C2F81C32CB69B3B9D2F80C328343C2F849
:100780000C328C894B6864F31F434C6902EBC40440
:10079000C4F840320C890B6864F31F434C6902EBC8
:1007A000C404C4F84432CB69012B16D1D2F80C3200
:1007B0000343C2F80C320C884B6864F31F434C6946
:1007C00002EBC404C4F840320C89CB6864F31F43C5
:1007D0004C6902EBC404C4F844328B69002BD2F894
:1007E00004320FD053EA0003C2F804320B69002B25
:1007F000D2F8143208D00343C2F81432096A01292E
:1008000004D008E08343EFE78343F5E7D2F81C12F6
:100810000143C2F81C12D2F8000220F00100C2F815
:100820000002002010BD704770B590F82040012CE8
:1008300005D0022C03D0416A41F4802128E00468ED
:1008400009B32469A40720D04FF4D874056804EBD9
:1008500001142D5915F00405956005682D591AD01D
:10086000ED08556005682C5904F00204D4604FF47B
:10087000DA74056804EB01142E5906F00F06082EF1
:100880000CD308250DE0E468DCE7416A41F400116F
:100890004162012070BD6D0D1560E3E72D5905F033
:1008A0000F05156105682D59C5F307259561056884
:1008B0002C59240C54614FF4DC72046802EB0112D1
:1008C000A4581C700468A458240A5C700468A458D6
:1008D000240C9C700468A258120EDA704FF4DE7279
:1008E000046802EB0112A4581C710468A458240A7D
:1008F0005C710468A458240C9C710468A258120E00
:10090000DA71006829B1016941F02001016100201C
:1009100070BDC16841F02001C160F8E72DE9F05FCA
:100920000546006800244669D0F804908768D0F82E
:100930000CB0D0F810A0D0F81880F10748D0F90713
:1009400014D001218160B80703D5284600F00BFAC6
:100950000CE0780702D54FF4006407E0380702D5B1
:100960004FF4805402E0284600F0FCF9F80516D553
:1009700029684FF480708860B80503D5284600F0D8
:10098000F4F90CE0780502D544F4005407E038058A
:1009900002D544F4804402E0284600F0E5F9F8036B
:1009A00016D529684FF480308860B80303D52846EF
:1009B00000F0DDF90CE0780302D544F4004407E0D0
:1009C000380302D544F4803402E0284600F0CEF922
:1009D000300707D55FEACB6004D52968102044F4BE
:1009E0000074C86070074FF0080707D55FEA0B7006
:1009F00004D52868C760284600F066F9B00706D518
:100A00002868C068800702D0284600F05FF97006A9
:100A100007D55FEACA6004D52968102044F48064D1
:100A20000861B00607D55FEA0A7004D52868076137
:100A3000284600F067F9F00606D5286800698007A7
:100A400002D0284600F05FF9B00308D55FEAC9601C
:100A500005D5296810204860284600F055F9F003B4
:100A600007D55FEA097004D528684760284600F07A
:100A70007FF9300446D55FEA497040D5F00504D5CA
:100A80005FEAC87001D044F00104B00504D55FEA04
:100A9000887001D544F00204700504D55FEA4870FF
:100AA00001D544F00404300529D518F0700F26D084
:100AB00008F07000402815D006DC102809D0202846
:100AC0000AD0302816D10AE050280ED0602811D163
:100AD0000EE044F008040DE044F010040AE044F095
:100AE000200407E044F0400404E044F0800401E006
:100AF00044F480742868816921F07001816129685B
:100B000004204860002C05D0686A204368622846AB
:100B1000FFF789FEBDE8F09F70B5040003D094F89C
:100B2000200010B104E0012070BD204600F082F8E2
:100B30002068016841F00101016000F077FB054683
:100B4000052604E000F072FB401B0A2811D820683B
:100B50004068C007F6D02068016821F002010160FA
:100B600000F064FB05460BE000F060FB401B0A2828
:100B700006D9606A40F40030606284F82060D2E7F1
:100B8000206840688007EFD4207E01282068016833
:100B90003DD021F080010160607E0128206801685D
:100BA00038D021F040010160A07E01282068016852
:100BB00033D021F020010160E07E01282068016827
:100BC0002ED041F010010160207F012820680168CB
:100BD00029D021F008010160607F012820680168A8
:100BE00024D021F004010160D4E902010843D4E9D2
:100BF0000412114308436168491E08432168C86113
:100C000000206062012084F82000002070BD41F0C7
:100C10008001C0E741F04001C5E741F02001CAE78B
:100C200021F01001CFE741F00801D4E741F00401C1
:100C3000D9E7000010B586B0002100910191029122
:100C4000039100681C49884233D11C48C16941F0B6
:100C50000071C161C16901F000710491816941F0C5
:100C6000080181618069164C00F0080004904FF47F
:100C7000807000906946204600F0E2F9601500900F
:100C800002200190032003906946204600F0D8F925
:100C90000C48416821F4C04141F0E06141F48041D9
:100CA000416000221146142000F02CFB142000F0BB
:100CB0001BFB06B010BD00000064004000100240A5
:100CC000000C0140000001407047000000B589B0F1
:100CD00007AB6A460021FFF7A7FD0098012808D15D
:100CE00005480799816005480899816004490020FA
:100CF000087009B000BD000054020020600200200E
:100D000000000020704770477047000070B504462F
:100D100090F82000012804D0606A40F4002060624E
:100D200018E0022084F820002068016821F0010109
:100D3000016000F07BFA05460EE000BF00F076FA95
:100D4000401B0A2808D9606A40F400306062052020
:100D500084F82000012070BD20684068C007EDD1F4
:100D6000606270BD7047704770477047704770474A
:100D7000704710B590F821100022022905D00421F7
:100D8000816380F82020012010BD01680B6823F0EA
:100D90000E030B6001680B6823F001030B6090F8F1
:100DA0004030C46B012101FA03F3636080F8211025
:100DB00080F82020104610BD10B590F821100024B6
:100DC000022903D00421816301243DE001680A68FF
:100DD00022F00E020A6001680A6822F001020A602D
:100DE0001A4A0168914201D1012121E0174A1432C7
:100DF000914201D110211BE0144A2832914201D1C5
:100E0000891515E0114A3C32914201D189140FE055
:100E10000E4A5032914202D14FF4803108E00B4A21
:100E20006432914202D14FF4801101E04FF08071A1
:100E3000064A083A5160012180F82110002180F80B
:100E40002010416B01B18847204610BD08000240C8
:100E50002DE9F05FC16B0C6801680B68D0F840C0E9
:100E6000042202FA0CF2494DDFF824A1494E4A4F00
:100E7000DFF828B1DFF828E122422CD05A072AD522
:100E80000A68920603D40A6822F004020A60016824
:100E9000A94201D1042219E0514501D1402215E0B7
:100EA000B14202D14FF4806210E0B94202D14FF456
:100EB00080420BE0594502D14FF4802206E0714593
:100EC00002D14FF4800201E04FF080622F490839CF
:100ED0004A60C16A3BE04FF0020808FA0CF818EAD1
:100EE000040F4FF000094FF0010235D05FEA83781C
:100EF00032D50B689B0605D40B6823F00A030B6000
:100F000080F821200168A94201D1022219E051454F
:100F100001D1202215E0B14202D14FF4007210E05D
:100F2000B94202D14FF400520BE0594502D14FF4BF
:100F3000003206E0714502D14FF4001201E04FF09B
:100F40000072124908394A6080F82090816A0029AD
:100F50001AD0BDE8F05F0847082505FA0CF52542D0
:100F600012D01B0710D50B6823F00E030B6090F80E
:100F70004010C36B02FA01F15960826380F82120AE
:100F800080F82090016BE2E7BDE8F09F0800024086
:100F90001C00024030000240440002405800024061
:100FA0006C00024030B528B308C813491422194414
:100FB000B1FBF2F18900C1631049816302214177DD
:100FC0001A6843F6F0718A43D0E900142143D0E94E
:100FD00002452C4321430469214344692143846928
:100FE00021431143196000214163012242770177B7
:100FF000084630BD012030BDF8FFFDBF00000240B3
:1010000070B5044600F012F90546601C02D0044891
:101010000078044400F00AF9401BA042FAD370BDE6
:101020002400002070470000044910B50A680242FD
:1010300002D00860FFF7F6FF10BD00001404014065
:101040002DE9F84FDFF8B8910024A9F1040B2346ED
:101050000F2709F1040AABF1040EC9E00125A540F0
:101060002A40AA427DD1674ED1F804C0ACEB0608F5
:10107000B44532D014DCBCF1030F3AD009DCBCF12A
:10108000000F2AD0BCF1010F1CD0BCF1020F31D1EE
:101090001DE0BCF1110F17D0BCF1120F2AD119E0DD
:1010A000B8F5881F19D006DCB8F5803F15D0B8F523
:1010B000801F1FD111E0B8F5001F0ED0B8F5041F36
:1010C00018D10AE0CB6815E0CB681B1D12E0CB6895
:1010D00008330FE0CB680C330CE08B682BB1012B8D
:1010E0004FF0080303D0456104E0042302E00561EA
:1010F00000E00023FF2A01D8064601E000F10406C3
:101100004FEA840501D9A5F12005D6F8008007FA39
:1011100005FC28EA0C0803FA05F548EA0508C6F8B4
:1011200000804D68ED0062D5374DAE6946F001068E
:10113000AE61AD6924F0030605F001050095334D5D
:1011400006EB050CDCF80850A607360F07FA06F880
:1011500025EA0805DFF8B880404503D14FF00008C4
:1011600017E044E0DFF8AC80404502D14FF00108C1
:101170000FE0DFF8A480404502D14FF0020808E0FC
:10118000DFF89880404502D14FF0030801E04FF0AE
:10119000040808FA06F848EA0508CCF808804D6803
:1011A000D9F80060ED024D4601D5164300E09643A4
:1011B0002E604D68DAF80060AD02554601D5164341
:1011C00000E096432E604D68DBF80060AD035D469D
:1011D00001D5164300E096432E604D68DEF80060AE
:1011E000ED03754601D5164300E096432E60641C5E
:1011F0000D682A46E5407FF431AFBDE8F88F000066
:1012000008040140000011100010024000000140DD
:1012100000080140000C0140001001400014014092
:101220008068084000D001207047000001488068B5
:1012300070470000240000200248816802781144B1
:101240008160704724000020074810B5016841F014
:1012500010010160032000F075F80F2000F006F87F
:1012600000F024F8002010BD0020024070B50D4DA4
:1012700004464FF47A712878B1FBF0F00A49096806
:10128000B1FBF0F000F052FB48B9102C07D200225D
:101290002146501E00F036F800206C6070BD012021
:1012A00070BD000024000020300000200C4808B56C
:1012B000816941F001018161816901F001010091C1
:1012C000C16941F08051C161C06900F08050009057
:1012D0000448416821F0E06141F00071416008BDBF
:1012E0000010024000000140002809DB00F01F024E
:1012F000012191404009800000F1E020C0F8001178
:1013000070470000F0B40E4B1B680C46C3F3022379
:10131000C3F10705042D00D90425191D072901D2A1
:10132000002300E0DB1E012606FA05F1491E2140DC
:1013300099409E40761E16403143F0BC01F05BBCE4
:101340000CED00E0064900F0070208684FF6FF03C5
:10135000184040EA0220034A10430860704700002A
:101360000CED00E00000FA052DE9F8430546007891
:10137000354CC00754D0E0690026C00008D4E069AD
:1013800040F08050E061E069012600F0805000905C
:101390002E480168C90512D40168804641F4807165
:1013A0000160FFF743FF074605E000BFFFF73EFF80
:1013B000C01B642823D8D8F80000C005F6D5206AE1
:1013C00010F4407021D0A98801F4407181421CD0F2
:1013D000206A1F49012220F440700A6000220A603E
:1013E0002062C00711D0FFF721FF074641F288387D
:1013F00008E000BFFFF71AFFC11B414502D90320D7
:10140000BDE8F883206A8007F4D5206A696820F473
:101410004070084320621EB1E06920F08050E06116
:101420002878800705D56068A96820F44040084303
:1014300060602878C00605D56068E96820F48000FF
:10144000084360600020DBE70010024000700040AD
:10145000400442422DE9F0470F46050061D0434E5B
:10146000306800F00700B84209D2306820F0070069
:1014700038433060306800F00700B84251D1286826
:101480003B4C810712D5400703D5606840F4E0600B
:1014900060602878000703D5606840F460506060A1
:1014A0006068A96820F0F000084360602878C007F1
:1014B00028D06868012810D02168022810D0890738
:1014C00000292EDA616821F0030101436160FFF712
:1014D000ADFE804641F288390DE021688903EFE7CF
:1014E0008901EDE7FFF7A2FEA0EB0801494502D90B
:1014F0000320BDE8F0876068696800F00C00B0EB7D
:10150000810FEFD1306800F00700B8420BD9306886
:1015100020F0070038433060306800F00700B84220
:1015200001D00120E5E72878400705D56068E96823
:1015300020F4E060084360602878000706D5606802
:10154000296920F4605040EAC100606000F038F87A
:101550006168084AC1F30311515CC840064908603C
:1015600006480068FFF782FE0020C2E70020024024
:1015700000100240FA33000830000020280000204C
:101580000448054900684968044AC1F30221515CD6
:10159000C840704730000020001002400A340008A4
:1015A0000448054900684968044AC1F3C221515CF6
:1015B000C840704730000020001002400A34000884
:1015C0000E4A51680E4801F00C03042B11D0082B71
:1015D0000FD10C48C1F38343C903C05C0AD55168DD
:1015E000084AC1F34041921E515C054A5043B0FB8A
:1015F000F1F0704704494843704700000010024072
:1016000000127A00EA33000800093D002DE9F84F86
:10161000040070D02078C04DC00749D06868C0F37E
:101620008100012807D06868C0F38100022809D131
:101630006868C00306D52868800339D5606800282B
:10164000E7D035E06068B0F5803F0BD010B1B0F561
:10165000A02F11D0286820F480302860286820F45A
:10166000802002E0286840F480302860606890B1F3
:10167000FFF7DCFD06460AE0286840F48020286079
:10168000F0E700BFFFF7D2FD801B642873D82868FD
:101690008003F7D50CE0FFF7C9FD064605E000BF63
:1016A000FFF7C4FD801B6428F0D828688003F7D4B6
:1016B00020789A4E80074FF001094FF0000839D585
:1016C000686810F00C0F07D06868C0F3810002282A
:1016D00009D16868C00306D42868800714D520693A
:1016E000012808D110E02069B0B1C6F80090FFF7DA
:1016F0009DFD074605E00AE1FFF798FDC01B0228A3
:10170000C4D828688007F7D52868616920F0F800F8
:1017100040EAC10028600DE0C6F80080FFF786FDB2
:10172000074604E0FFF782FDC01B022823D8286883
:101730008007F7D4207800072CD57948A169D9B162
:10174000C0F80090FFF772FD074604E0FFF76EFD5A
:10175000C01B02280FD8686A8007F7D571484FF47C
:10176000FA510068B0FBF1F0009000BF0098411EF4
:101770000091FAD20EE080E0C0F80080FFF756FD3D
:10178000074604E0FFF752FDC01B022875D8686ABF
:101790008007F7D42078400760D5E8690027C000AB
:1017A00008D4E86940F08050E861E869012700F05A
:1017B000805000905C480168C90513D401688346D5
:1017C00041F480710160FFF731FD824606E000BF01
:1017D000FFF72CFDA0EB0A0064284ED8DBF80000D0
:1017E000C005F5D5E06801280AD008B1052813D056
:1017F000286A20F001002862286A20F0040002E034
:10180000286A40F001002862E06841F2883B98B104
:10181000FFF70CFD82460BE0286A40F004002862C6
:10182000EEE700BFFFF702FDA0EB0A0159455AD8C9
:10183000286A8007F6D50CE0FFF7F8FC824605E041
:10184000FFF7F4FCA0EB0A0159454CD8286A800741
:10185000F6D41FB1E86920F08050E861E06988B3F0
:101860006968C1F38101022944D00228C6F860806A
:1018700004D0FFF7DBFC044638E034E0FFF7D6FC89
:10188000074604E0FFF7D2FCC01B02282BD82868CB
:101890008001F7D4206AB0F5803F05D16868A1685F
:1018A00020F4003008436860D4E9080108436968FF
:1018B00021F4741108436860C6F86090FFF7B6FC25
:1018C000044606E025E000BFFFF7B0FC001B02283D
:1018D00009D828688001F7D51BE000BFFFF7A6FCF8
:1018E000001B022802D90320BDE8F88F2868800178
:1018F000F4D40EE00128F7D06868226A00F4803141
:10190000914204D1616A00F47010884201D0012034
:10191000EAE70020E8E70000001002400000424231
:1019200080044242300000200070004010B5401E8C
:10193000B0F1807F01D3012010BD4FF0E024606141
:101940000F21601701F057F90020A06107202061E6
:10195000002010BD7047704710B590F83C20012A58
:1019600022D0012280F83C20CA688C6822F44072A0
:1019700022434C6822F4806222430C6822F4006205
:1019800022430C6922F4805222434C6922F4005213
:101990002243C969002322F480420A4301684A6451
:1019A00080F83C30002010BD022010BD70B590F8CA
:1019B0003C20012A26D0012480F83C40022280F8F5
:1019C0003D2003685A689D6822F070060A68324319
:1019D0005A600D4B02689A4208D0B2F1804F05D090
:1019E0000A4B9A4202D00A4B9A4204D1496825F028
:1019F00080031943916080F83D40002180F83C103D
:101A0000084670BD022070BD002C0140000400405B
:101A10000008004010B5040003D094F83D0010B158
:101A200007E0012010BD002084F83C00204600F0B3
:101A30001FF8022084F83D00211D206800F0C0FE40
:101A4000012084F8460084F83E0084F83F0084F8C2
:101A5000400084F8410084F8420084F8430084F890
:101A6000440084F8450084F83D00002010BD0000CB
:101A700008B500680B49884212D10B48C16941F092
:101A80000401C161C069002200F00400009001213E
:101A90001E20FFF737FCBDE808401E20FFF724BCDE
:101AA00008BD0000000800400010024090F83D1002
:101AB000012901D001207047022180F83D10006803
:101AC0000B49884208D0B0F1804F05D009498842BF
:101AD00002D00949884204D1816801F00701062932
:101AE00003D0016841F0010101600020704700004F
:101AF000002C0140000400400008004090F83D1018
:101B0000012901D001207047022180F83D100168B1
:101B1000CA6842F00102CA6000680B49884208D0D6
:101B2000B0F1804F05D00949884202D00849884267
:101B300004D1816801F00701062903D0016841F052
:101B40000101016000207047002C014000040040AA
:101B50000008004070B5044690F83C0000250128BC
:101B600017D0012684F83C60022084F83D002068EC
:101B7000826822F0770222F47F428260086850284F
:101B800038D00DDC20284FD005DC90B3102811D1BF
:101B90004AE0022070BD302846D040280AD13BE000
:101BA00060282FD070280DD0B0F5805F03D0B0F53D
:101BB000005F12D0012584F83D60002084F83C00CD
:101BC000284670BDCB68D1E90121206800F03BFEBA
:101BD0002068816841F0770109E0CB68D1E90121F3
:101BE000206800F030FE2068816841F48041816007
:101BF000E1E719E0CA684968206800F0D9FE502181
:101C0000206806E0CA684968206800F0E2FE6021AA
:101C1000206800F022FECEE7CA684968206800F01C
:101C2000C7FE40212068F4E7226801461046F0E72D
:101C3000704770B50446006801694FF00005C9435C
:101C4000890715D4C168C943890711D4E91E016108
:101C500001202077206880698007204602D0FFF7A6
:101C6000E7FF04E000F0BEF8204600F063F92577B6
:101C700020680169C943490717D4C168C9434907A6
:101C800013D46FF00401016102202077206880697D
:101C900010F4407F204602D0FFF7CAFF04E000F0B6
:101CA000A1F8204600F046F9257720680169C9436C
:101CB000090716D4C168C943090712D46FF0080197
:101CC0000161042020772068C0698007204602D087
:101CD000FFF7AEFF04E000F085F8204600F02AF997
:101CE000257720680169C943C90617D4C168C9436B
:101CF000C90613D46FF01001016108202077206815
:101D0000C06910F4407F204602D0FFF791FF04E045
:101D100000F068F8204600F00DF925772068016989
:101D2000C943C90708D1C168C943C90704D1891E7D
:101D30000161204600F04EF920680169C943090697
:101D400009D4C168C943090605D46FF08001016157
:101D50002046FFF7FFFD20680169C943490609D401
:101D6000C168C943490605D46FF0400101612046AE
:101D700000F08AF920680169C94389060BD4C1685B
:101D8000C943890607D46FF0200101612046BDE8F0
:101D90007040FFF7E0BD70BD00B585B00021009137
:101DA00001910291039100680B49884212D10B48BE
:101DB000816941F0040181618069694600F0040095
:101DC00004904FF47060009002200190039004484A
:101DD000FFF736F905B000BD002C014000100240AD
:101DE00000080140704770B5044690F83C0000269A
:101DF0000D4601280FD0012084F83C006AB1042A66
:101E00001DD0082A2FD00C2A3FD00126002084F8AC
:101E10003C00304670BD022070BD206800F026FDF9
:101E20002068816941F0080181612068816921F0A1
:101E300004018161206881692A69114311E02068E9
:101E400000F03CFD2068816941F4006181612068F7
:101E5000816921F480618161206881692A6941EA90
:101E600002218161D2E7206800F054FD2068C16939
:101E700041F00801C1612068C16921F00401C1611C
:101E80002068C1692A69114311E0206800F06EFDE5
:101E90002068C16941F40061C1612068C16921F411
:101EA0008061C1612068C1692A6941EA0221C1617A
:101EB000ACE710B5040003D094F83D0010B107E082
:101EC000012010BD002084F83C00204600F01EF8E0
:101ED000022084F83D00211D206800F071FC0120E3
:101EE00084F8460084F83E0084F83F0084F84000FF
:101EF00084F8410084F8420084F8430084F84400E8
:101F000084F8450084F83D00002010BD08B5006845
:101F10000649884208D10648816941F4006181611F
:101F2000806900F40060009008BD0000002C0140B2
:101F3000001002407047000010B50446022249B16B
:101F400004290ED0082913D094F84100012816D096
:101F5000012010BD94F83E000128F9D184F83E20FC
:101F60000FE094F83F000128F2D184F83F2008E008
:101F700094F840000128EBD184F8402001E084F877
:101F800041200122206800F051FC0F49206888425E
:101F900003D1426C42F4004242642068884208D077
:101FA000B0F1804F05D00949884202D008498842E3
:101FB00004D1816801F00701062903D0016841F0CE
:101FC00001010160002010BD002C01400004004010
:101FD000000800402DE9F0412549884243D1254EB3
:101FE000D6E9000101F0FAF8234C214601F024F96A
:101FF00001F0C6F8214F00223B4600F015FFDFF844
:1020000080800022434600F00FFF00F0DBFE054613
:10201000D6E9020101F0E2F8214601F00DF901F0E4
:10202000AFF800223B4600F0FFFE0022434600F0DE
:10203000FBFE00F0C7FE0E4CD834656004F10C05C1
:1020400029466860204600F005FE0020C6E9000031
:10205000C6E902000B490878C82806D30020208171
:10206000608128816881BDE8F081401C0870FAE732
:102070007C010020100000200000A04100002A4048
:1020800000003E400000002070477047704700008D
:10209000F8B5016804460868CA684B6910F00F0F6C
:1020A0004FF0000559D003F0010602F49077374352
:1020B00065D0C10705D0D10503D5616C41F00101A0
:1020C0006164410705D5D90703D0616C41F0020175
:1020D0006164810705D5D90703D0616C41F0040123
:1020E0006164010707D502F02001314303D0616C20
:1020F00041F008016164616C00293AD0800604D582
:10210000900602D5204600F0A5FC20684069616C6D
:10211000C0F38010090700D460B3204600F073FCC0
:1021200020684069400621D52068143050E8001F1F
:1021300021F0400140E80012002AF5D1E06BA8B17F
:102140006D494163E06BFEF737FE002811D0E06B6C
:10215000416B01B0BDE8F040084783060FD59306F8
:102160000DD52046BDE8F84000F074BC2046FFF7CE
:102170008DFFF8BD2046FFF789FF6564F8BD266B2B
:102180002023012E7CD1C6067AD5D60678D50868DC
:102190004868009048694FF00206400640D5E16B60
:1021A000086840680004000CE8D0A28D8242E5D99E
:1021B000E085886920282DD020680C3050E8001F69
:1021C00021F4807140E80012002AF5D12068143013
:1021D00050E8001F21F0010140E80012002AF5D16B
:1021E0002068143050E8001F21F0400140E8001240
:1021F000002AF5D184F84230256320680C3050E87D
:10220000001F21F0100140E80012002AF5D1E06B18
:10221000FEF7AFFD6663A08DE18D401A81B22AE022
:10222000A08DE18D401A81B2E08D0028A6D0002952
:10223000A4D022680C3252E8000F20F4907042E8DB
:102240000007002FF5D12068143050E8002F22F04D
:10225000010240E80027002FF5D184F842302563C1
:1022600020680C3050E8002F22F0100240E80023D4
:10227000002BF5D166632046FFF707FFF8BDFFE7A7
:1022800005062BD5150629D594F841002128F5D14E
:10229000A068B0F5805F01D12069B0B1206A411C0F
:1022A0002162216800784860E08C401E0004000C28
:1022B000E084E3D12068C16821F08001C16020681A
:1022C000C16841F04001C160D8E7206A0088C0F3CE
:1022D00008004860206A801C2062E5E74006CDD5F2
:1022E0005006CBD5CA68204622F04002CA6084F866
:1022F000413000F0BEF8C1E7F729000870B50400CE
:1023000004D094F84100002510B106E0012070BD12
:1023100084F84050204600F023F8242084F841003F
:102320002068C16821F40051C160204600F0F4FB30
:102330002068016921F4904101612068416921F020
:102340002A0141612068C16841F40051C16065649F
:10235000202084F8410084F842006563002070BDAD
:1023600070B586B00024009401940294039406464C
:10237000384D0368384902200322AB4227D1CB698C
:1023800043F40033CB61CB6903F4003304938B69CE
:1023900043F004038B618969304D01F0040104911D
:1023A0000421CDE90010039269462846FEF748FE55
:1023B0000820CDE90004694628460294FEF740FE55
:1023C000002211462620FEF79DFF26203DE0244DE9
:1023D000AB423CD1CB6943F48023CB61CB6903F49E
:1023E000802304938B6943F008038B61896903920E
:1023F00001F0080104912915CDE90010194D694635
:102400002846FEF71DFEE814CDE90004694628467B
:102410000294FEF715FE154D1348C5E9000480200F
:10242000C5E902402C6180016C61C5E9064028467F
:10243000FEF7B8FD08B1FDF7BBFFF56300221146BA
:1024400027206E62FEF75EFF2720FEF74DFF06B0E5
:1024500070BD000000440040001002400008014030
:1024600000480040000C0140300002406C02002097
:1024700070477047FEE700003EB500241148009405
:10248000019402940E49846001600473047501256F
:1024900005614FF460214460C161FEF709F808B19D
:1024A00072B6FEE70420CDE90005694602940548AE
:1024B000FDF780FF002801D072B6FEE73EBD0000A8
:1024C00000240140DC0000200E4810B50C490160DA
:1024D0000221416000214FF430228160C0E90312E3
:1024E0004FF480024261017641768176C1760177B0
:1024F0004177FEF711FB002801D072B6FEE710BD50
:10250000006400400C01002070B586B0002427480C
:1025100002940394816941F020018161816901F095
:1025200020010491816941F004018161816901F018
:1025300004010491816941F00801816180691C4DA9
:1025400000F0080004900120CDE90005194E69460D
:102550003046FEF775FD0220CDE90004694630469D
:102560000294FEF76DFD1020CDE90005124D69467D
:1025700002942846FEF764FD2020CDE90004694658
:1025800028460294FEF75CFD002211460620FEF765
:10259000B9FE0620FEF7A8FE002211460A20FEF72B
:1025A000B1FE0A20FEF7A0FE06B070BD001002408A
:1025B0000000111000080140000C014010B592B05D
:1025C00000240F941C2168461094FDF7FDFD202186
:1025D00007A8FDF7F9FD2C482A4901604721C0E909
:1025E000011440F2CF71C0E9031444618461FFF724
:1025F00060FC08B172B6FEE70F940FA92248109450
:10260000FFF7D4F908B172B6FEE76020CDE9000407
:102610000294039404940594002269461A4806948F
:10262000FFF7E1FB08B172B6FEE7042269461648DF
:10263000FFF7D9FB08B172B6FEE7082269461248D7
:10264000FFF7D1FB08B172B6FEE70C2269460E48CF
:10265000FFF7C9FB08B172B6FEE707940894099426
:102660004FF400500A94CDE90B4007A906480E9498
:10267000FFF772F908B172B6FEE70348FFF78CFB6B
:1026800012B010BD002C01403401002010B586B0FE
:10269000002417480094019402940394049413496D
:1026A0000594016040F2CF21C0E9011441F2873165
:1026B000C0E903148461FFF7ADF908B172B6FEE713
:1026C0004FF48050009069460948FFF743FA08B17B
:1026D00072B6FEE7049404A905480594FFF766F96D
:1026E000002801D072B6FEE706B010BD0008004019
:1026F0007C010020FEE7FEE710B50028029C16D002
:10270000002A14D00170116841605168816000F1A5
:102710000C0C91688CE81A0000218163416301630D
:102720000162C1628162416241640164C16310BDA2
:1027300070477047FEF780BD30B593B028216846DA
:10274000FDF742FD14210AA8FDF73EFD00250120FA
:102750000F9510951195010412958DE823000490B2
:102760004FF4E010CDE90810022407946846FEF704
:102770004DFF08B172B6FEE70AA90F2081E83100CB
:102780004FF48060CDE90D0502210AA8FEF762FE34
:1027900008B172B6FEE74FF4004011900F940FA8F5
:1027A000FEF7E2FD002801D072B6FEE713B030BD9F
:1027B000704700000148FFF73CBA00007C01002090
:1027C000F0B50268164B174C174D4FF080479842F2
:1027D00005D0B84203D0A04201D0A84203D122F0D4
:1027E00070064A683243984205D0B84203D0A042EE
:1027F00001D0A84203D122F44074CA6822434C6934
:1028000022F08002224302608A68C2620A68826201
:10281000984201D10969016301214161F0BD0000C5
:10282000002C0140000400400008004010B501F0F9
:102830001F030121046A99408C430462016A9A4093
:102840001143016210BD10B5846842EA032224F4EA
:102850007F440A432243826010BD826822F07002E6
:102860000A4342F0070181607047000030B5036AF7
:10287000026A22F0010202624268846924F0730550
:102880000C682C4323F002058B682B430A4DA842A9
:102890000BD123F00805CB6822F440722B434D691D
:1028A00023F0040315438A692A434260846149681E
:1028B0004163036230BD0000002C014030B5026A64
:1028C000036A23F010030362436884690D6824F4EB
:1028D000E64444EA05248D6822F0200242EA05120B
:1028E0000B4DA8420ED1CD6822F0800242EA0512BB
:1028F0004D6923F4406343EA85038D6922F0400269
:1029000043EA85034360846149688163026230BDA4
:10291000002C014030B5036A026A22F48072026220
:102920004268C46923F4007324F073050C682C43D7
:102930008D6843EA05230C4DA8420ED1CD6823F4DF
:10294000006343EA05234D6922F4405242EA05122E
:102950008D6923F4806342EA05124260C4614968CC
:10296000C163036230BD0000002C014030B5046A31
:10297000026A22F4805202624268C3690D6823F43D
:10298000E64343EA05238D6824F4005444EA053401
:10299000064DA84204D14D6922F4804242EA8512D4
:1029A0004260C36149680164046230BD002C01408B
:1029B00010B5036A046A24F001040462846924F0F7
:1029C000F00444EA021423F00A020A43846102621A
:1029D00010BD10B5036A046A24F01004046284690F
:1029E00023F0A00324F4704444EA023243EA0111C4
:1029F0008261016210BD10B5406A0021C185C184A9
:102A0000FFF744FB10BD01680C3151E8002F22F4A0
:102A1000907241E80023002BF5D10168143151E890
:102A2000002F22F0010241E80023002BF5D1016BB9
:102A3000012909D101680C3151E8002F22F0100260
:102A400041E80023002BF5D1202180F8421000211D
:102A50000163704708B590F84210222901D0022086
:102A600008BD82684FF480539A4201D1016921B1B7
:102A7000816A9A421BD04AB10AE00268816A5268B0
:102A8000C2F308020A80816A891C08E0026972B1F7
:102A90000268526802F07F020A70816A491C8162F2
:102AA000C18D491E0904090CC18503D01BE00268D1
:102AB0005268F1E70168CA6822F02002CA60016822
:102AC000CA6822F48072CA6001684A6922F0010271
:102AD0004A61202180F8421000214163026B012AE3
:102AE00003D0FFF7C5FC002008BD016301680C316D
:102AF00051E8002F22F0100241E80023002BF5D10D
:102B000001680A68D20602D50A6849680091818D79
:102B1000FFF7BBFAE7E7000070B5044600680169FB
:102B2000E26821F44051114301612169A068084322
:102B3000616908432168CA6841F20C639A43024301
:102B4000CA6020684169A26921F440711143416162
:102B50001E492068884202D1FEF722FD01E0FEF7FF
:102B60000FFD00EBC00101EB0012606864218000E2
:102B7000B2FBF0F3B3FBF1F36FF018067343B2FB53
:102B8000F0F5B2FBF0F605EB8305322303EB0515F8
:102B9000B5FBF1F5B6FBF1F605F0F00505EB061512
:102BA000B2FBF0F6B2FBF0F0B0FBF1F06FF0180200
:102BB000504306EB800003EB0010B0FBF1F02168FE
:102BC00000F00F002844886070BD0000003801400C
:102BD0000148FFF75DBA0000C40100200148FFF77B
:102BE00057BA00000C0200200148FDF797BE000014
:102BF0000C010020FEE70907090E002804DB00F1A4
:102C0000E02080F80014704700F00F0000F1E02091
:102C100080F8141D7047000000B58BB00121002022
:102C20000891CDE906010421CDE90001029003904D
:102C30000590049069460648FDF77EFD0448FEF7BE
:102C400065F802210248FDF7FDFC0BB000BD000055
:102C50000C01002008B50B4A00239360D3600823C1
:102C6000136102231360084A40686B4642F8010F63
:102C700048685060044A0349521C0448FDF7F4FCBC
:102C800008BD000034000020000000200C010020DE
:102C900008B5FEF7D9FAFFF74FFDFFF735FC4148BD
:102CA000416941F0010141614069002200F00100E9
:102CB000009011460D20FEF725FB0D20FEF714FBBA
:102CC000FFF702FCFFF77AFC384837494FF4E1354B
:102CD00000240160C0E901540C26C460C0E9044628
:102CE0008461C461FFF70AFB08B172B6FEE72F48A2
:102CF0002F4948300160C0E90154C460C0E904466E
:102D00008461C461FFF7FAFA08B172B6FEE7FFF713
:102D1000B3FBFFF7BBFC25489038FEF7C7FE2348FE
:102D20004838FEF7EBFE214800219038FFF704F900
:102D30001E4804219038FFF7FFF81C4808219038FE
:102D4000FFF7FAF819480C219038FFF7F5F8FFF76C
:102D500063FF194D174C2B46184A00211848009460
:102D6000FFF7CAFC154A16482B460C3200214830A2
:102D70000094FFF7C1FC0D4C903C04F5907604F5EF
:102D80009675216830894863216870898863216855
:102D90002889C8632168688908643220FEF730F901
:102DA000EFE700000010024000440040C401002092
:102DB000004800400000884100007842D0330008FD
:102DC0004C00002021F00042A2F16052B2F5801FB9
:102DD00001F0004328BFD2F17F6C0BD95FEA001CE1
:102DE00043EAC20242EB507018BF704728BF20F080
:102DF00001007047B2F5801FBCBF184670474FEA0C
:102E0000410C1CF5001F02D2084600F0DCBA70B578
:102E100000F062F900000089FFF7F6BF4FF00040B4
:102E2000A0F58000704700002DE9C04130B4DFF804
:102E3000A0C23CEA111418BF3CEA131400F0EC8065
:102E400081EA03051CEA111444EAD57418BF1CEA90
:102E5000131500F0C780A4EB05044FF0004545EAC8
:102E6000C12145EAC32341EA505143EA525304F1D8
:102E70007F74994204F500344FEAC0204FEAC22221
:102E800008BF904200F09C804FEA13650FF2401695
:102E9000765D4FEA134506FB05F7C7F1807706FB21
:102EA00007F74FEAD737A7FB03687642C8F58038A3
:102EB000A7FB06CE38BFA8F1010807FB08E64FF0D4
:102EC000000EA6FB028CE6FB03CEDCF1000CCEF17B
:102ED000004E38BFAEF1010EA6FB0C584FF00007B4
:102EE0004FF00005E6FB0E87A1FB08C6A0FB07CE4E
:102EF00016EB0E0645F10005E1FB076515F1E04E06
:102F00007EBFA4F580345FEA46066D4116F1800766
:102F100045F100054FEA17274FEA066647EA0567BD
:102F2000A6F1DE46B6F1805F4FEA15251FD9384677
:102F300024F0010C05EBC471BCF1FE6F01EB0C1128
:102F400002D8F0BCBDE8008124425CBF01F5801EC0
:102F50009EEAC47F02D4F0BCBDE80081244238D48C
:102F6000F0BCA1F1C041BDE8004100F003B94FEA57
:102F7000D22242EA43524FEAD323A7FB02864FEA0A
:102F8000D02040EA415007FB03661EEA0E0F4FEACD
:102F9000D12105FB026658BFA6EB0056B6EB0056E2
:102FA0004FEA520E4EEAC37E18EB0E0E56EB530E4E
:102FB000BDD518EB02085E417F1C55F10005B6E750
:102FC0004FF480154FF000074FF000064FF0000857
:102FD000ADE7F0BC4FF0000001F1C04101F000414D
:102FE000BDE8008111EA0C1F0CEA131500D00CE0BB
:102FF00013EA0C1F00F025804FF00000F0BC81EABE
:10300000030101F00041BDE80081F0BCBDE80041D2
:1030100081EA030100F0AEB8F0BCBDE8004170B534
:1030200000F05AF8097EFC3E00F007B881EA03017F
:103030004FF0000001F00041704781EA030100F009
:1030400099B8F0BCBDE800414FF00000214970473D
:10305000FFFDFBF9F7F5F4F2F0EEEDEBE9E8E6E45D
:10306000E3E1E0DEDDDBDAD8D7D5D4D3D1D0CFCDE4
:10307000CCCBCAC8C7C6C5C4C2C1C0BFBEBDBCBB1D
:10308000BAB9B8B7B6B5B4B3B2B1B0AFAEADACAB18
:10309000AAA9A8A8A7A6A5A4A3A3A2A1A09F9F9EF2
:1030A0009D9C9C9B9A9999989797969595949393A4
:1030B000929191908F8F8E8E8D8C8C8B8B8A89893B
:1030C00088888787868585848483838282818180BE
:1030D0000000FF070000F87F0EF1020E2EF0030E35
:1030E0005EF8046B364205D4012A43EB030515F55F
:1030F000001F12D8012841EB010C1CF5001F0CD851
:103100000ED14FEAD17C15F5001F0CEB4C0C0CF1E5
:10311000020C08BF4CEBD37C04E04FF0080C01E03C
:103120004FEAD37C0CEB4C0526FA05F606F00706B1
:10313000B6F1040C06D20EEB860CBDE870404CF0E4
:10314000010C6047DFE80CF0090B02024FF0004170
:103150004FF00000A1F5002170BD1946104601286E
:1031600051EB010418BFD4F5001484BF002001F016
:10317000004170BD0808A0F500114FEA3101704709
:1031800043004FEAD30C4FEA3C0C43401FBF4007BB
:103190000CF1605113F0FE4F70471CF0006F03D12B
:1031A00000200CF0004170470CF0004343EA5070DF
:1031B00010B540EACC0000F0C0F800BF000000925B
:1031C0004FEA0001FFF7D6BF4FF000414FF000007B
:1031D000A1F5002170474FF07E5209E011F0004246
:1031E00004D54042C1F1000138BF491E42F07E5271
:1031F0000B0002F1706212BF20235FEA00017047EA
:10320000B1FA81FCA3EB0C0301FA0CF120FA03FCE8
:1032100002EBC352C3F1200341EA0C0110FA03FC94
:103220005CEA416C42EB112018BF5FF0806C28BF54
:1032300020F00100704700004FF47F0C1CEAD01210
:103240001EBF1CEAD11392EA0C0F93EA0C0F00F098
:10325000478090EA010F48BF42F480724FF0004C63
:103260004CEA00204CEA012102EB0302A0FB01130F
:10327000A2F50002002918BF43F001035B0028BF3C
:103280004FEA330342EB22425FEA132C4CEBC2506D
:103290002EBFBCEB436FB2F57C0F70474FEA036C57
:1032A000BCF1004F08BF20F00100B2F57C0F38BF21
:1032B00070470BD582F0FF0212F5803FC8BF704700
:1032C00000F1C040D8BF00F00040704700F5000C8E
:1032D0005FEA4C0C48BF7047B0F1C04000F073B8D3
:1032E00090EA010F0CEAD11348BF42F480726245A4
:1032F00038BF634504D280EA010000F00040704707
:1033000010B500F01AF800BF8900013E00F007B8C0
:1033100000F009B85FEA410C5FEA1C6C08D080EA53
:10332000010000F050B85FEA400C5FEA1C6CF6D177
:103330004FF00040A0F5800070470EF1020E2EF015
:10334000030E5EF8044B244204D44FEA4102B2F16A
:103350007F4F11D84FEA4003B3F17F4F0CD80ED105
:103360004FEAD07CB2F17F4F0CEB4C0C0CF1020C0D
:1033700008BF4CEBD17C04E04FF0080C01E04FEAB1
:10338000D17C0CEB4C0324FA03F404F00704B4F1F1
:10339000040C06D20EEB840CBDE810404CF0010C7E
:1033A0006047DFE80CF0070802024FF00040A0F58C
:1033B000800010BD0846420018BFD2F1807288BF5D
:1033C00000F0004010BDFF2141EAD050C005704719
:1033D000CDCCCC3F77BE9F3D00000000CDCCCC3F94
:1033E00077BE9F3D000000000102020304050607AE
:1033F00008090A0B0C0D0E0F101000000000000051
:103400000000010203040607080900000000010291
:1034100003040000343400080000002034000000E1
:10342000280100086834000834000020DC0800008F
:1034300044010008640000000000000000000000DB
:10344000000000000000000000000000000000007C
:10345000000000000000000001000000100000005B
:08346000000000000024F4004C
:04000005080000ED02
:00000001FF
